{
	"random_number_generator.sol": {
		"BoardRandom_V18": {
			"abi": [
				{
					"inputs": [
						{
							"internalType": "address",
							"name": "_token",
							"type": "address"
						},
						{
							"internalType": "uint256",
							"name": "_boardSize",
							"type": "uint256"
						},
						{
							"internalType": "uint256",
							"name": "_resetThreshold",
							"type": "uint256"
						}
					],
					"stateMutability": "nonpayable",
					"type": "constructor"
				},
				{
					"anonymous": false,
					"inputs": [
						{
							"indexed": false,
							"internalType": "uint256",
							"name": "number",
							"type": "uint256"
						},
						{
							"indexed": false,
							"internalType": "uint256",
							"name": "timestamp",
							"type": "uint256"
						}
					],
					"name": "RandomNumberGenerated",
					"type": "event"
				},
				{
					"inputs": [],
					"name": "boardSize",
					"outputs": [
						{
							"internalType": "uint256",
							"name": "",
							"type": "uint256"
						}
					],
					"stateMutability": "view",
					"type": "function"
				},
				{
					"inputs": [],
					"name": "currentGeneration",
					"outputs": [
						{
							"internalType": "uint256",
							"name": "",
							"type": "uint256"
						}
					],
					"stateMutability": "view",
					"type": "function"
				},
				{
					"inputs": [],
					"name": "excludedCount",
					"outputs": [
						{
							"internalType": "uint256",
							"name": "",
							"type": "uint256"
						}
					],
					"stateMutability": "view",
					"type": "function"
				},
				{
					"inputs": [],
					"name": "generateRandom",
					"outputs": [],
					"stateMutability": "nonpayable",
					"type": "function"
				},
				{
					"inputs": [
						{
							"internalType": "uint256",
							"name": "number",
							"type": "uint256"
						}
					],
					"name": "isExcluded",
					"outputs": [
						{
							"internalType": "bool",
							"name": "",
							"type": "bool"
						}
					],
					"stateMutability": "view",
					"type": "function"
				},
				{
					"inputs": [],
					"name": "lastGeneratedAt",
					"outputs": [
						{
							"internalType": "uint256",
							"name": "",
							"type": "uint256"
						}
					],
					"stateMutability": "view",
					"type": "function"
				},
				{
					"inputs": [],
					"name": "lastRandomNumber",
					"outputs": [
						{
							"internalType": "uint256",
							"name": "",
							"type": "uint256"
						}
					],
					"stateMutability": "view",
					"type": "function"
				},
				{
					"inputs": [],
					"name": "owner",
					"outputs": [
						{
							"internalType": "address",
							"name": "",
							"type": "address"
						}
					],
					"stateMutability": "view",
					"type": "function"
				},
				{
					"inputs": [],
					"name": "resetThreshold",
					"outputs": [
						{
							"internalType": "uint256",
							"name": "",
							"type": "uint256"
						}
					],
					"stateMutability": "view",
					"type": "function"
				},
				{
					"inputs": [
						{
							"internalType": "address",
							"name": "_source1",
							"type": "address"
						}
					],
					"name": "setSource1",
					"outputs": [],
					"stateMutability": "nonpayable",
					"type": "function"
				},
				{
					"inputs": [
						{
							"internalType": "address",
							"name": "_source2",
							"type": "address"
						}
					],
					"name": "setSource2",
					"outputs": [],
					"stateMutability": "nonpayable",
					"type": "function"
				},
				{
					"inputs": [
						{
							"internalType": "address",
							"name": "_source3",
							"type": "address"
						}
					],
					"name": "setSource3",
					"outputs": [],
					"stateMutability": "nonpayable",
					"type": "function"
				},
				{
					"inputs": [],
					"name": "source1",
					"outputs": [
						{
							"internalType": "address",
							"name": "",
							"type": "address"
						}
					],
					"stateMutability": "view",
					"type": "function"
				},
				{
					"inputs": [],
					"name": "source2",
					"outputs": [
						{
							"internalType": "address",
							"name": "",
							"type": "address"
						}
					],
					"stateMutability": "view",
					"type": "function"
				},
				{
					"inputs": [],
					"name": "source3",
					"outputs": [
						{
							"internalType": "address",
							"name": "",
							"type": "address"
						}
					],
					"stateMutability": "view",
					"type": "function"
				},
				{
					"inputs": [],
					"name": "token",
					"outputs": [
						{
							"internalType": "contract IERC20",
							"name": "",
							"type": "address"
						}
					],
					"stateMutability": "view",
					"type": "function"
				}
			],
			"devdoc": {
				"kind": "dev",
				"methods": {},
				"version": 1
			},
			"evm": {
				"assembly": "    /* \"random_number_generator.sol\":120:3840  contract BoardRandom_V18 {... */\n  mstore(0x40, 0x80)\n    /* \"random_number_generator.sol\":648:1094  constructor(... */\n  callvalue\n  dup1\n  iszero\n  tag_1\n  jumpi\n  0x00\n  dup1\n  revert\ntag_1:\n  pop\n  mload(0x40)\n  sub(codesize, bytecodeSize)\n  dup1\n  bytecodeSize\n  dup4\n  codecopy\n  dup2\n  add\n  0x40\n  dup2\n  swap1\n  mstore\n  tag_2\n  swap2\n  tag_3\n  jump\t// in\ntag_2:\n    /* \"random_number_generator.sol\":787:788  0 */\n  0x00\n    /* \"random_number_generator.sol\":774:784  _boardSize */\n  dup3\n    /* \"random_number_generator.sol\":774:788  _boardSize > 0 */\n  gt\n    /* \"random_number_generator.sol\":766:815  require(_boardSize > 0, \"Board size must be > 0\") */\n  tag_6\n  jumpi\n  mload(0x40)\n  shl(0xe5, 0x461bcd)\n  dup2\n  mstore\n    /* \"#utility.yul\":633:635   */\n  0x20\n    /* \"random_number_generator.sol\":766:815  require(_boardSize > 0, \"Board size must be > 0\") */\n  0x04\n  dup3\n  add\n    /* \"#utility.yul\":615:636   */\n  mstore\n    /* \"#utility.yul\":672:674   */\n  0x16\n    /* \"#utility.yul\":652:670   */\n  0x24\n  dup3\n  add\n    /* \"#utility.yul\":645:675   */\n  mstore\n    /* \"#utility.yul\":711:735   */\n  0x426f6172642073697a65206d757374206265203e203000000000000000000000\n    /* \"#utility.yul\":691:709   */\n  0x44\n  dup3\n  add\n    /* \"#utility.yul\":684:736   */\n  mstore\n    /* \"#utility.yul\":753:771   */\n  0x64\n  add\n    /* \"random_number_generator.sol\":766:815  require(_boardSize > 0, \"Board size must be > 0\") */\ntag_7:\n  mload(0x40)\n  dup1\n  swap2\n  sub\n  swap1\n  revert\ntag_6:\n    /* \"random_number_generator.sol\":852:853  0 */\n  0x00\n    /* \"random_number_generator.sol\":834:849  _resetThreshold */\n  dup2\n    /* \"random_number_generator.sol\":834:853  _resetThreshold > 0 */\n  gt\n    /* \"random_number_generator.sol\":834:886  _resetThreshold > 0 && _resetThreshold <= _boardSize */\n  dup1\n  iszero\n  tag_9\n  jumpi\n  pop\n    /* \"random_number_generator.sol\":876:886  _boardSize */\n  dup2\n    /* \"random_number_generator.sol\":857:872  _resetThreshold */\n  dup2\n    /* \"random_number_generator.sol\":857:886  _resetThreshold <= _boardSize */\n  gt\n  iszero\n    /* \"random_number_generator.sol\":834:886  _resetThreshold > 0 && _resetThreshold <= _boardSize */\ntag_9:\n    /* \"random_number_generator.sol\":826:914  require(_resetThreshold > 0 && _resetThreshold <= _boardSize, \"Invalid reset threshold\") */\n  tag_10\n  jumpi\n  mload(0x40)\n  shl(0xe5, 0x461bcd)\n  dup2\n  mstore\n    /* \"#utility.yul\":984:986   */\n  0x20\n    /* \"random_number_generator.sol\":826:914  require(_resetThreshold > 0 && _resetThreshold <= _boardSize, \"Invalid reset threshold\") */\n  0x04\n  dup3\n  add\n    /* \"#utility.yul\":966:987   */\n  mstore\n    /* \"#utility.yul\":1023:1025   */\n  0x17\n    /* \"#utility.yul\":1003:1021   */\n  0x24\n  dup3\n  add\n    /* \"#utility.yul\":996:1026   */\n  mstore\n    /* \"#utility.yul\":1062:1087   */\n  0x496e76616c6964207265736574207468726573686f6c64000000000000000000\n    /* \"#utility.yul\":1042:1060   */\n  0x44\n  dup3\n  add\n    /* \"#utility.yul\":1035:1088   */\n  mstore\n    /* \"#utility.yul\":1105:1123   */\n  0x64\n  add\n    /* \"random_number_generator.sol\":826:914  require(_resetThreshold > 0 && _resetThreshold <= _boardSize, \"Invalid reset threshold\") */\n  tag_7\n    /* \"#utility.yul\":782:1129   */\n  jump\n    /* \"random_number_generator.sol\":826:914  require(_resetThreshold > 0 && _resetThreshold <= _boardSize, \"Invalid reset threshold\") */\ntag_10:\n    /* \"random_number_generator.sol\":927:932  owner */\n  0x01\n    /* \"random_number_generator.sol\":927:945  owner = msg.sender */\n  dup1\n  sload\n    /* \"random_number_generator.sol\":935:945  msg.sender */\n  caller\n  not(sub(shl(0xa0, 0x01), 0x01))\n    /* \"random_number_generator.sol\":927:945  owner = msg.sender */\n  swap2\n  dup3\n  and\n  or\n  dup3\n  sstore\n  0x00\n    /* \"random_number_generator.sol\":956:978  token = IERC20(_token) */\n  dup1\n  sload\n  swap1\n  swap2\n  and\n  sub(shl(0xa0, 0x01), 0x01)\n  swap6\n  swap1\n  swap6\n  and\n  swap5\n  swap1\n  swap5\n  or\n  swap1\n  swap4\n  sstore\n    /* \"random_number_generator.sol\":989:998  boardSize */\n  0x05\n    /* \"random_number_generator.sol\":989:1011  boardSize = _boardSize */\n  swap2\n  swap1\n  swap2\n  sstore\n    /* \"random_number_generator.sol\":1022:1036  resetThreshold */\n  0x06\n    /* \"random_number_generator.sol\":1022:1054  resetThreshold = _resetThreshold */\n  sstore\n    /* \"random_number_generator.sol\":1065:1082  currentGeneration */\n  0x09\n    /* \"random_number_generator.sol\":1065:1086  currentGeneration = 1 */\n  sstore\n    /* \"random_number_generator.sol\":120:3840  contract BoardRandom_V18 {... */\n  jump(tag_14)\n    /* \"#utility.yul\":14:426   */\ntag_3:\n    /* \"#utility.yul\":102:108   */\n  0x00\n    /* \"#utility.yul\":110:116   */\n  dup1\n    /* \"#utility.yul\":118:124   */\n  0x00\n    /* \"#utility.yul\":171:173   */\n  0x60\n    /* \"#utility.yul\":159:168   */\n  dup5\n    /* \"#utility.yul\":150:157   */\n  dup7\n    /* \"#utility.yul\":146:169   */\n  sub\n    /* \"#utility.yul\":142:174   */\n  slt\n    /* \"#utility.yul\":139:191   */\n  iszero\n  tag_16\n  jumpi\n    /* \"#utility.yul\":187:188   */\n  0x00\n    /* \"#utility.yul\":184:185   */\n  dup1\n    /* \"#utility.yul\":177:189   */\n  revert\n    /* \"#utility.yul\":139:191   */\ntag_16:\n    /* \"#utility.yul\":213:229   */\n  dup4\n  mload\n  sub(shl(0xa0, 0x01), 0x01)\n    /* \"#utility.yul\":258:289   */\n  dup2\n  and\n    /* \"#utility.yul\":248:290   */\n  dup2\n  eq\n    /* \"#utility.yul\":238:308   */\n  tag_17\n  jumpi\n    /* \"#utility.yul\":304:305   */\n  0x00\n    /* \"#utility.yul\":301:302   */\n  dup1\n    /* \"#utility.yul\":294:306   */\n  revert\n    /* \"#utility.yul\":238:308   */\ntag_17:\n    /* \"#utility.yul\":372:374   */\n  0x20\n    /* \"#utility.yul\":357:375   */\n  dup6\n  add\n    /* \"#utility.yul\":351:376   */\n  mload\n    /* \"#utility.yul\":416:418   */\n  0x40\n    /* \"#utility.yul\":401:419   */\n  swap1\n  swap6\n  add\n    /* \"#utility.yul\":395:420   */\n  mload\n    /* \"#utility.yul\":327:332   */\n  swap1\n  swap7\n    /* \"#utility.yul\":351:376   */\n  swap5\n  swap6\n  pop\n    /* \"#utility.yul\":395:420   */\n  swap4\n    /* \"#utility.yul\":14:426   */\n  swap3\n  pop\n  pop\n  pop\n  jump\t// out\n    /* \"#utility.yul\":782:1129   */\ntag_14:\n    /* \"random_number_generator.sol\":120:3840  contract BoardRandom_V18 {... */\n  dataSize(sub_0)\n  dup1\n  dataOffset(sub_0)\n  0x00\n  codecopy\n  0x00\n  return\nstop\n\nsub_0: assembly {\n        /* \"random_number_generator.sol\":120:3840  contract BoardRandom_V18 {... */\n      mstore(0x40, 0x80)\n      callvalue\n      dup1\n      iszero\n      tag_1\n      jumpi\n      0x00\n      dup1\n      revert\n    tag_1:\n      pop\n      jumpi(tag_2, lt(calldatasize, 0x04))\n      shr(0xe0, calldataload(0x00))\n      dup1\n      0x96a12049\n      gt\n      tag_19\n      jumpi\n      dup1\n      0xc51d69f4\n      gt\n      tag_20\n      jumpi\n      dup1\n      0xc51d69f4\n      eq\n      tag_15\n      jumpi\n      dup1\n      0xd8cb09b1\n      eq\n      tag_16\n      jumpi\n      dup1\n      0xe7f571b2\n      eq\n      tag_17\n      jumpi\n      dup1\n      0xfc0c546a\n      eq\n      tag_18\n      jumpi\n      0x00\n      dup1\n      revert\n    tag_20:\n      dup1\n      0x96a12049\n      eq\n      tag_11\n      jumpi\n      dup1\n      0x9c2cf049\n      eq\n      tag_12\n      jumpi\n      dup1\n      0xc0c8ebe1\n      eq\n      tag_13\n      jumpi\n      dup1\n      0xc19e789b\n      eq\n      tag_14\n      jumpi\n      0x00\n      dup1\n      revert\n    tag_19:\n      dup1\n      0x21e1ba4e\n      gt\n      tag_21\n      jumpi\n      dup1\n      0x21e1ba4e\n      eq\n      tag_7\n      jumpi\n      dup1\n      0x4134acff\n      eq\n      tag_8\n      jumpi\n      dup1\n      0x8da5cb5b\n      eq\n      tag_9\n      jumpi\n      dup1\n      0x8ddb428a\n      eq\n      tag_10\n      jumpi\n      0x00\n      dup1\n      revert\n    tag_21:\n      dup1\n      0x02e4af01\n      eq\n      tag_3\n      jumpi\n      dup1\n      0x0a272a0a\n      eq\n      tag_4\n      jumpi\n      dup1\n      0x10c40e4e\n      eq\n      tag_5\n      jumpi\n      dup1\n      0x15aaa450\n      eq\n      tag_6\n      jumpi\n    tag_2:\n      0x00\n      dup1\n      revert\n        /* \"random_number_generator.sol\":1692:3619  function generateRandom() external {... */\n    tag_3:\n      tag_22\n      tag_23\n      jump\t// in\n    tag_22:\n      stop\n        /* \"random_number_generator.sol\":3627:3837  function isExcluded(uint256 number) external view returns (bool) {... */\n    tag_4:\n      tag_24\n      tag_25\n      calldatasize\n      0x04\n      tag_26\n      jump\t// in\n    tag_25:\n      tag_27\n      jump\t// in\n    tag_24:\n      mload(0x40)\n        /* \"#utility.yul\":364:378   */\n      swap1\n      iszero\n        /* \"#utility.yul\":357:379   */\n      iszero\n        /* \"#utility.yul\":339:380   */\n      dup2\n      mstore\n        /* \"#utility.yul\":327:329   */\n      0x20\n        /* \"#utility.yul\":312:330   */\n      add\n        /* \"random_number_generator.sol\":3627:3837  function isExcluded(uint256 number) external view returns (bool) {... */\n    tag_28:\n      mload(0x40)\n      dup1\n      swap2\n      sub\n      swap1\n      return\n        /* \"random_number_generator.sol\":1366:1521  function setSource2(address _source2) external onlyOwner {... */\n    tag_5:\n      tag_22\n      tag_31\n      calldatasize\n      0x04\n      tag_32\n      jump\t// in\n    tag_31:\n      tag_33\n      jump\t// in\n        /* \"random_number_generator.sol\":538:568  uint256 public lastGeneratedAt */\n    tag_6:\n      tag_34\n      sload(0x0b)\n      dup2\n      jump\n    tag_34:\n      mload(0x40)\n        /* \"#utility.yul\":851:876   */\n      swap1\n      dup2\n      mstore\n        /* \"#utility.yul\":839:841   */\n      0x20\n        /* \"#utility.yul\":824:842   */\n      add\n        /* \"random_number_generator.sol\":538:568  uint256 public lastGeneratedAt */\n      tag_28\n        /* \"#utility.yul\":705:882   */\n      jump\n        /* \"random_number_generator.sol\":500:531  uint256 public lastRandomNumber */\n    tag_7:\n      tag_34\n      sload(0x0a)\n      dup2\n      jump\n        /* \"random_number_generator.sol\":1203:1358  function setSource1(address _source1) external onlyOwner {... */\n    tag_8:\n      tag_22\n      tag_42\n      calldatasize\n      0x04\n      tag_32\n      jump\t// in\n    tag_42:\n      tag_43\n      jump\t// in\n        /* \"random_number_generator.sol\":178:198  address public owner */\n    tag_9:\n      sload(0x01)\n      tag_44\n      swap1\n      sub(shl(0xa0, 0x01), 0x01)\n      and\n      dup2\n      jump\n    tag_44:\n      mload(0x40)\n      sub(shl(0xa0, 0x01), 0x01)\n        /* \"#utility.yul\":1051:1106   */\n      swap1\n      swap2\n      and\n        /* \"#utility.yul\":1033:1107   */\n      dup2\n      mstore\n        /* \"#utility.yul\":1021:1023   */\n      0x20\n        /* \"#utility.yul\":1006:1024   */\n      add\n        /* \"random_number_generator.sol\":178:198  address public owner */\n      tag_28\n        /* \"#utility.yul\":887:1113   */\n      jump\n        /* \"random_number_generator.sol\":459:491  uint256 public currentGeneration */\n    tag_10:\n      tag_34\n      sload(0x09)\n      dup2\n      jump\n        /* \"random_number_generator.sol\":205:227  address public source1 */\n    tag_11:\n      sload(0x02)\n      tag_44\n      swap1\n      sub(shl(0xa0, 0x01), 0x01)\n      and\n      dup2\n      jump\n        /* \"random_number_generator.sol\":234:256  address public source2 */\n    tag_12:\n      sload(0x03)\n      tag_44\n      swap1\n      sub(shl(0xa0, 0x01), 0x01)\n      and\n      dup2\n      jump\n        /* \"random_number_generator.sol\":424:452  uint256 public excludedCount */\n    tag_13:\n      tag_34\n      sload(0x08)\n      dup2\n      jump\n        /* \"random_number_generator.sol\":263:285  address public source3 */\n    tag_14:\n      sload(0x04)\n      tag_44\n      swap1\n      sub(shl(0xa0, 0x01), 0x01)\n      and\n      dup2\n      jump\n        /* \"random_number_generator.sol\":294:318  uint256 public boardSize */\n    tag_15:\n      tag_34\n      sload(0x05)\n      dup2\n      jump\n        /* \"random_number_generator.sol\":325:354  uint256 public resetThreshold */\n    tag_16:\n      tag_34\n      sload(0x06)\n      dup2\n      jump\n        /* \"random_number_generator.sol\":1529:1684  function setSource3(address _source3) external onlyOwner {... */\n    tag_17:\n      tag_22\n      tag_70\n      calldatasize\n      0x04\n      tag_32\n      jump\t// in\n    tag_70:\n      tag_71\n      jump\t// in\n        /* \"random_number_generator.sol\":152:171  IERC20 public token */\n    tag_18:\n      sload(0x00)\n      tag_44\n      swap1\n      sub(shl(0xa0, 0x01), 0x01)\n      and\n      dup2\n      jump\n        /* \"random_number_generator.sol\":1692:3619  function generateRandom() external {... */\n    tag_23:\n        /* \"random_number_generator.sol\":1758:1759  0 */\n      0x00\n        /* \"random_number_generator.sol\":1746:1755  boardSize */\n      sload(0x05)\n        /* \"random_number_generator.sol\":1746:1759  boardSize > 0 */\n      gt\n        /* \"random_number_generator.sol\":1738:1785  require(boardSize > 0, \"Board not initialized\") */\n      tag_77\n      jumpi\n      mload(0x40)\n      shl(0xe5, 0x461bcd)\n      dup2\n      mstore\n        /* \"#utility.yul\":1564:1566   */\n      0x20\n        /* \"random_number_generator.sol\":1738:1785  require(boardSize > 0, \"Board not initialized\") */\n      0x04\n      dup3\n      add\n        /* \"#utility.yul\":1546:1567   */\n      mstore\n        /* \"#utility.yul\":1603:1605   */\n      0x15\n        /* \"#utility.yul\":1583:1601   */\n      0x24\n      dup3\n      add\n        /* \"#utility.yul\":1576:1606   */\n      mstore\n        /* \"#utility.yul\":1642:1665   */\n      0x426f617264206e6f7420696e697469616c697a65640000000000000000000000\n        /* \"#utility.yul\":1622:1640   */\n      0x44\n      dup3\n      add\n        /* \"#utility.yul\":1615:1666   */\n      mstore\n        /* \"#utility.yul\":1683:1701   */\n      0x64\n      add\n        /* \"random_number_generator.sol\":1738:1785  require(boardSize > 0, \"Board not initialized\") */\n    tag_78:\n      mload(0x40)\n      dup1\n      swap2\n      sub\n      swap1\n      revert\n    tag_77:\n        /* \"random_number_generator.sol\":1906:1913  source1 */\n      sload(0x02)\n        /* \"random_number_generator.sol\":1944:1951  source2 */\n      sload(0x03)\n        /* \"random_number_generator.sol\":1982:1989  source3 */\n      sload(0x04)\n        /* \"random_number_generator.sol\":1867:2016  abi.encodePacked(... */\n      0x40\n      dup1\n      mload\n      sub(shl(0xa0, 0x01), 0x01)\n        /* \"random_number_generator.sol\":1906:1913  source1 */\n      swap5\n      dup6\n      and\n        /* \"random_number_generator.sol\":1906:1921  source1.balance */\n      balance\n        /* \"random_number_generator.sol\":1867:2016  abi.encodePacked(... */\n      0x20\n      dup3\n      add\n        /* \"#utility.yul\":1897:1916   */\n      mstore\n        /* \"random_number_generator.sol\":1944:1951  source2 */\n      swap3\n      dup5\n      and\n        /* \"random_number_generator.sol\":1944:1959  source2.balance */\n      balance\n        /* \"#utility.yul\":1932:1944   */\n      swap1\n      dup4\n      add\n        /* \"#utility.yul\":1925:1953   */\n      mstore\n        /* \"random_number_generator.sol\":1982:1989  source3 */\n      swap2\n      swap1\n      swap2\n      and\n        /* \"random_number_generator.sol\":1982:1997  source3.balance */\n      balance\n        /* \"#utility.yul\":1969:1981   */\n      0x60\n      dup3\n      add\n        /* \"#utility.yul\":1962:1990   */\n      mstore\n        /* \"random_number_generator.sol\":1798:1814  uint256 entropy1 */\n      0x00\n      swap1\n        /* \"#utility.yul\":2006:2018   */\n      0x80\n      add\n        /* \"random_number_generator.sol\":1867:2016  abi.encodePacked(... */\n      mload(0x40)\n      0x20\n      dup2\n      dup4\n      sub\n      sub\n      dup2\n      mstore\n      swap1\n      0x40\n      mstore\n        /* \"random_number_generator.sol\":1839:2031  keccak256(... */\n      dup1\n      mload\n      swap1\n      0x20\n      add\n      keccak256\n        /* \"random_number_generator.sol\":1817:2042  uint256(... */\n      0x00\n      shr\n        /* \"random_number_generator.sol\":1798:2042  uint256 entropy1 = uint256(... */\n      swap1\n      pop\n        /* \"random_number_generator.sol\":2055:2067  uint256 num1 */\n      0x00\n        /* \"random_number_generator.sol\":2082:2091  boardSize */\n      sload(0x05)\n        /* \"random_number_generator.sol\":2071:2079  entropy1 */\n      dup3\n        /* \"random_number_generator.sol\":2071:2091  entropy1 % boardSize */\n      tag_82\n      swap2\n      swap1\n      tag_83\n      jump\t// in\n    tag_82:\n        /* \"random_number_generator.sol\":2070:2096  (entropy1 % boardSize) + 1 */\n      tag_84\n      swap1\n        /* \"random_number_generator.sol\":2095:2096  1 */\n      0x01\n        /* \"random_number_generator.sol\":2070:2096  (entropy1 % boardSize) + 1 */\n      tag_85\n      jump\t// in\n    tag_84:\n        /* \"random_number_generator.sol\":2055:2096  uint256 num1 = (entropy1 % boardSize) + 1 */\n      swap1\n      pop\n        /* \"random_number_generator.sol\":2107:2116  bool odd1 */\n      0x00\n        /* \"random_number_generator.sol\":2119:2127  num1 % 2 */\n      tag_86\n        /* \"random_number_generator.sol\":2126:2127  2 */\n      0x02\n        /* \"random_number_generator.sol\":2055:2096  uint256 num1 = (entropy1 % boardSize) + 1 */\n      dup4\n        /* \"random_number_generator.sol\":2119:2127  num1 % 2 */\n      tag_83\n      jump\t// in\n    tag_86:\n        /* \"random_number_generator.sol\":2145:2171  uint256 senderTokenBalance */\n      0x00\n        /* \"random_number_generator.sol\":2174:2179  token */\n      dup1\n      sload\n        /* \"random_number_generator.sol\":2174:2201  token.balanceOf(msg.sender) */\n      mload(0x40)\n      shl(0xe0, 0x70a08231)\n      dup2\n      mstore\n        /* \"random_number_generator.sol\":2190:2200  msg.sender */\n      caller\n        /* \"random_number_generator.sol\":2174:2201  token.balanceOf(msg.sender) */\n      0x04\n      dup3\n      add\n        /* \"#utility.yul\":1033:1107   */\n      mstore\n        /* \"random_number_generator.sol\":2131:2132  1 */\n      0x01\n        /* \"random_number_generator.sol\":2119:2132  num1 % 2 == 1 */\n      swap4\n      swap1\n      swap4\n      eq\n      swap4\n      pop\n        /* \"random_number_generator.sol\":2145:2171  uint256 senderTokenBalance */\n      swap1\n      swap2\n      sub(shl(0xa0, 0x01), 0x01)\n        /* \"random_number_generator.sol\":2174:2179  token */\n      swap1\n      swap2\n      and\n      swap1\n        /* \"random_number_generator.sol\":2174:2189  token.balanceOf */\n      0x70a08231\n      swap1\n        /* \"#utility.yul\":1006:1024   */\n      0x24\n      add\n        /* \"random_number_generator.sol\":2174:2201  token.balanceOf(msg.sender) */\n      0x20\n      mload(0x40)\n      dup1\n      dup4\n      sub\n      dup2\n      dup7\n      gas\n      staticcall\n      iszero\n      dup1\n      iszero\n      tag_89\n      jumpi\n      returndatasize\n      0x00\n      dup1\n      returndatacopy\n      revert(0x00, returndatasize)\n    tag_89:\n      pop\n      pop\n      pop\n      pop\n      mload(0x40)\n      returndatasize\n      not(0x1f)\n      0x1f\n      dup3\n      add\n      and\n      dup3\n      add\n      dup1\n      0x40\n      mstore\n      pop\n      dup2\n      add\n      swap1\n      tag_90\n      swap2\n      swap1\n      tag_91\n      jump\t// in\n    tag_90:\n        /* \"random_number_generator.sol\":2281:2390  abi.encodePacked(... */\n      mload(0x40)\n      not(0xffffffffffffffffffffffff)\n        /* \"random_number_generator.sol\":2320:2330  msg.sender */\n      caller\n        /* \"#utility.yul\":2871:2873   */\n      0x60\n        /* \"#utility.yul\":2867:2882   */\n      shl\n        /* \"#utility.yul\":2863:2916   */\n      and\n        /* \"random_number_generator.sol\":2281:2390  abi.encodePacked(... */\n      0x20\n      dup3\n      add\n        /* \"#utility.yul\":2851:2917   */\n      mstore\n        /* \"#utility.yul\":2933:2945   */\n      0x34\n      dup2\n      add\n        /* \"#utility.yul\":2926:2954   */\n      dup3\n      swap1\n      mstore\n        /* \"random_number_generator.sol\":2145:2201  uint256 senderTokenBalance = token.balanceOf(msg.sender) */\n      swap1\n      swap2\n      pop\n        /* \"random_number_generator.sol\":2212:2228  uint256 entropy2 */\n      0x00\n      swap1\n        /* \"#utility.yul\":2970:2982   */\n      0x54\n      add\n        /* \"random_number_generator.sol\":2281:2390  abi.encodePacked(... */\n      mload(0x40)\n      0x20\n      dup2\n      dup4\n      sub\n      sub\n      dup2\n      mstore\n      swap1\n      0x40\n      mstore\n        /* \"random_number_generator.sol\":2253:2405  keccak256(... */\n      dup1\n      mload\n      swap1\n      0x20\n      add\n      keccak256\n        /* \"random_number_generator.sol\":2231:2416  uint256(... */\n      0x00\n      shr\n        /* \"random_number_generator.sol\":2212:2416  uint256 entropy2 = uint256(... */\n      swap1\n      pop\n        /* \"random_number_generator.sol\":2429:2441  uint256 num2 */\n      0x00\n        /* \"random_number_generator.sol\":2456:2465  boardSize */\n      sload(0x05)\n        /* \"random_number_generator.sol\":2445:2453  entropy2 */\n      dup3\n        /* \"random_number_generator.sol\":2445:2465  entropy2 % boardSize */\n      tag_94\n      swap2\n      swap1\n      tag_83\n      jump\t// in\n    tag_94:\n        /* \"random_number_generator.sol\":2444:2470  (entropy2 % boardSize) + 1 */\n      tag_95\n      swap1\n        /* \"random_number_generator.sol\":2469:2470  1 */\n      0x01\n        /* \"random_number_generator.sol\":2444:2470  (entropy2 % boardSize) + 1 */\n      tag_85\n      jump\t// in\n    tag_95:\n        /* \"random_number_generator.sol\":2429:2470  uint256 num2 = (entropy2 % boardSize) + 1 */\n      swap1\n      pop\n        /* \"random_number_generator.sol\":2481:2490  bool odd2 */\n      0x00\n        /* \"random_number_generator.sol\":2493:2501  num2 % 2 */\n      tag_96\n        /* \"random_number_generator.sol\":2500:2501  2 */\n      0x02\n        /* \"random_number_generator.sol\":2429:2470  uint256 num2 = (entropy2 % boardSize) + 1 */\n      dup4\n        /* \"random_number_generator.sol\":2493:2501  num2 % 2 */\n      tag_83\n      jump\t// in\n    tag_96:\n        /* \"random_number_generator.sol\":2505:2506  1 */\n      0x01\n        /* \"random_number_generator.sol\":2493:2506  num2 % 2 == 1 */\n      eq\n        /* \"random_number_generator.sol\":2481:2506  bool odd2 = num2 % 2 == 1 */\n      swap1\n      pop\n        /* \"random_number_generator.sol\":2519:2535  uint256 finalNum */\n      0x00\n        /* \"random_number_generator.sol\":2555:2564  boardSize */\n      sload(0x05)\n        /* \"random_number_generator.sol\":2547:2551  num2 */\n      dup4\n        /* \"random_number_generator.sol\":2540:2544  num1 */\n      dup9\n        /* \"random_number_generator.sol\":2540:2551  num1 + num2 */\n      tag_97\n      swap2\n      swap1\n      tag_85\n      jump\t// in\n    tag_97:\n        /* \"random_number_generator.sol\":2539:2564  (num1 + num2) % boardSize */\n      tag_98\n      swap2\n      swap1\n      tag_83\n      jump\t// in\n    tag_98:\n        /* \"random_number_generator.sol\":2538:2569  ((num1 + num2) % boardSize) + 1 */\n      tag_99\n      swap1\n        /* \"random_number_generator.sol\":2568:2569  1 */\n      0x01\n        /* \"random_number_generator.sol\":2538:2569  ((num1 + num2) % boardSize) + 1 */\n      tag_85\n      jump\t// in\n    tag_99:\n        /* \"random_number_generator.sol\":2661:2678  currentGeneration */\n      sload(0x09)\n        /* \"random_number_generator.sol\":2629:2657  excludedGeneration[finalNum] */\n      0x00\n      dup3\n      dup2\n      mstore\n        /* \"random_number_generator.sol\":2629:2647  excludedGeneration */\n      0x07\n        /* \"random_number_generator.sol\":2629:2657  excludedGeneration[finalNum] */\n      0x20\n      mstore\n      0x40\n      swap1\n      keccak256\n      sload\n        /* \"random_number_generator.sol\":2519:2569  uint256 finalNum = ((num1 + num2) % boardSize) + 1 */\n      swap2\n      swap3\n      pop\n        /* \"random_number_generator.sol\":2629:2678  excludedGeneration[finalNum] == currentGeneration */\n      swap1\n      sub\n        /* \"random_number_generator.sol\":2625:3148  if (excludedGeneration[finalNum] == currentGeneration) {... */\n      tag_109\n      jumpi\n        /* \"random_number_generator.sol\":2707:2711  odd2 */\n      dup2\n        /* \"random_number_generator.sol\":2699:2711  odd1 == odd2 */\n      iszero\n      iszero\n        /* \"random_number_generator.sol\":2699:2703  odd1 */\n      dup7\n        /* \"random_number_generator.sol\":2699:2711  odd1 == odd2 */\n      iszero\n      iszero\n      sub\n        /* \"random_number_generator.sol\":2695:3137  if (odd1 == odd2) {... */\n      tag_101\n      jumpi\n        /* \"random_number_generator.sol\":2732:2904  while (excludedGeneration[finalNum] == currentGeneration) {... */\n    tag_102:\n        /* \"random_number_generator.sol\":2771:2788  currentGeneration */\n      sload(0x09)\n        /* \"random_number_generator.sol\":2739:2767  excludedGeneration[finalNum] */\n      0x00\n      dup3\n      dup2\n      mstore\n        /* \"random_number_generator.sol\":2739:2757  excludedGeneration */\n      0x07\n        /* \"random_number_generator.sol\":2739:2767  excludedGeneration[finalNum] */\n      0x20\n      mstore\n      0x40\n      swap1\n      keccak256\n      sload\n        /* \"random_number_generator.sol\":2739:2788  excludedGeneration[finalNum] == currentGeneration */\n      sub\n        /* \"random_number_generator.sol\":2732:2904  while (excludedGeneration[finalNum] == currentGeneration) {... */\n      tag_103\n      jumpi\n        /* \"random_number_generator.sol\":2813:2823  finalNum++ */\n      dup1\n      tag_104\n      dup2\n      tag_105\n      jump\t// in\n    tag_104:\n      swap2\n      pop\n      pop\n        /* \"random_number_generator.sol\":2861:2870  boardSize */\n      sload(0x05)\n        /* \"random_number_generator.sol\":2850:2858  finalNum */\n      dup2\n        /* \"random_number_generator.sol\":2850:2870  finalNum > boardSize */\n      gt\n        /* \"random_number_generator.sol\":2846:2884  if (finalNum > boardSize) finalNum = 1 */\n      iszero\n      tag_106\n      jumpi\n      pop\n        /* \"random_number_generator.sol\":2883:2884  1 */\n      0x01\n        /* \"random_number_generator.sol\":2846:2884  if (finalNum > boardSize) finalNum = 1 */\n    tag_106:\n        /* \"random_number_generator.sol\":2732:2904  while (excludedGeneration[finalNum] == currentGeneration) {... */\n      jump(tag_102)\n    tag_103:\n        /* \"random_number_generator.sol\":2695:3137  if (odd1 == odd2) {... */\n      jump(tag_109)\n    tag_101:\n        /* \"random_number_generator.sol\":2944:3122  while (excludedGeneration[finalNum] == currentGeneration) {... */\n    tag_108:\n        /* \"random_number_generator.sol\":2983:3000  currentGeneration */\n      sload(0x09)\n        /* \"random_number_generator.sol\":2951:2979  excludedGeneration[finalNum] */\n      0x00\n      dup3\n      dup2\n      mstore\n        /* \"random_number_generator.sol\":2951:2969  excludedGeneration */\n      0x07\n        /* \"random_number_generator.sol\":2951:2979  excludedGeneration[finalNum] */\n      0x20\n      mstore\n      0x40\n      swap1\n      keccak256\n      sload\n        /* \"random_number_generator.sol\":2951:3000  excludedGeneration[finalNum] == currentGeneration */\n      sub\n        /* \"random_number_generator.sol\":2944:3122  while (excludedGeneration[finalNum] == currentGeneration) {... */\n      tag_109\n      jumpi\n        /* \"random_number_generator.sol\":3029:3037  finalNum */\n      dup1\n        /* \"random_number_generator.sol\":3041:3042  1 */\n      0x01\n        /* \"random_number_generator.sol\":3029:3042  finalNum == 1 */\n      sub\n        /* \"random_number_generator.sol\":3025:3102  if (finalNum == 1) finalNum = boardSize;... */\n      tag_110\n      jumpi\n      pop\n        /* \"random_number_generator.sol\":3055:3064  boardSize */\n      sload(0x05)\n        /* \"random_number_generator.sol\":2944:3122  while (excludedGeneration[finalNum] == currentGeneration) {... */\n      jump(tag_108)\n        /* \"random_number_generator.sol\":3025:3102  if (finalNum == 1) finalNum = boardSize;... */\n    tag_110:\n        /* \"random_number_generator.sol\":3092:3102  finalNum-- */\n      dup1\n      tag_112\n      dup2\n      tag_113\n      jump\t// in\n    tag_112:\n      swap2\n      pop\n      pop\n        /* \"random_number_generator.sol\":2944:3122  while (excludedGeneration[finalNum] == currentGeneration) {... */\n      jump(tag_108)\n    tag_109:\n        /* \"random_number_generator.sol\":3240:3257  currentGeneration */\n      sload(0x09)\n        /* \"random_number_generator.sol\":3209:3237  excludedGeneration[finalNum] */\n      0x00\n      dup3\n      dup2\n      mstore\n        /* \"random_number_generator.sol\":3209:3227  excludedGeneration */\n      0x07\n        /* \"random_number_generator.sol\":3209:3237  excludedGeneration[finalNum] */\n      0x20\n      mstore\n      0x40\n      dup2\n      keccak256\n        /* \"random_number_generator.sol\":3209:3257  excludedGeneration[finalNum] = currentGeneration */\n      swap2\n      swap1\n      swap2\n      sstore\n        /* \"random_number_generator.sol\":3268:3281  excludedCount */\n      0x08\n        /* \"random_number_generator.sol\":3268:3283  excludedCount++ */\n      dup1\n      sload\n      swap2\n      tag_114\n      dup4\n      tag_105\n      jump\t// in\n    tag_114:\n      swap2\n      swap1\n      pop\n      sstore\n      pop\n        /* \"random_number_generator.sol\":3368:3382  resetThreshold */\n      sload(0x06)\n        /* \"random_number_generator.sol\":3351:3364  excludedCount */\n      sload(0x08)\n        /* \"random_number_generator.sol\":3351:3382  excludedCount >= resetThreshold */\n      lt\n        /* \"random_number_generator.sol\":3347:3462  if (excludedCount >= resetThreshold) {... */\n      tag_115\n      jumpi\n        /* \"random_number_generator.sol\":3399:3416  currentGeneration */\n      0x09\n        /* \"random_number_generator.sol\":3399:3418  currentGeneration++ */\n      dup1\n      sload\n      swap1\n        /* \"random_number_generator.sol\":3399:3416  currentGeneration */\n      0x00\n        /* \"random_number_generator.sol\":3399:3418  currentGeneration++ */\n      tag_116\n      dup4\n      tag_105\n      jump\t// in\n    tag_116:\n      swap1\n      swap2\n      sstore\n      pop\n      pop\n        /* \"random_number_generator.sol\":3449:3450  0 */\n      0x00\n        /* \"random_number_generator.sol\":3433:3446  excludedCount */\n      0x08\n        /* \"random_number_generator.sol\":3433:3450  excludedCount = 0 */\n      sstore\n        /* \"random_number_generator.sol\":3347:3462  if (excludedCount >= resetThreshold) {... */\n    tag_115:\n        /* \"random_number_generator.sol\":3474:3490  lastRandomNumber */\n      0x0a\n        /* \"random_number_generator.sol\":3474:3501  lastRandomNumber = finalNum */\n      dup2\n      swap1\n      sstore\n        /* \"random_number_generator.sol\":3530:3545  block.timestamp */\n      timestamp\n        /* \"random_number_generator.sol\":3512:3527  lastGeneratedAt */\n      0x0b\n        /* \"random_number_generator.sol\":3512:3545  lastGeneratedAt = block.timestamp */\n      dup2\n      swap1\n      sstore\n        /* \"random_number_generator.sol\":3563:3611  RandomNumberGenerated(finalNum, block.timestamp) */\n      0x40\n      dup1\n      mload\n        /* \"#utility.yul\":3448:3473   */\n      dup4\n      dup2\n      mstore\n        /* \"#utility.yul\":3504:3506   */\n      0x20\n        /* \"#utility.yul\":3489:3507   */\n      dup2\n      add\n        /* \"#utility.yul\":3482:3516   */\n      swap3\n      swap1\n      swap3\n      mstore\n        /* \"random_number_generator.sol\":3563:3611  RandomNumberGenerated(finalNum, block.timestamp) */\n      0x252851c72bba973a3eff4c55d976631b74c5e463b736ab3ba7ea37cbe40bbc19\n      swap2\n        /* \"#utility.yul\":3421:3439   */\n      add\n        /* \"random_number_generator.sol\":3563:3611  RandomNumberGenerated(finalNum, block.timestamp) */\n      mload(0x40)\n      dup1\n      swap2\n      sub\n      swap1\n      log1\n        /* \"random_number_generator.sol\":1727:3619  {... */\n      pop\n      pop\n      pop\n      pop\n      pop\n      pop\n      pop\n      pop\n        /* \"random_number_generator.sol\":1692:3619  function generateRandom() external {... */\n      jump\t// out\n        /* \"random_number_generator.sol\":3627:3837  function isExcluded(uint256 number) external view returns (bool) {... */\n    tag_27:\n        /* \"random_number_generator.sol\":3686:3690  bool */\n      0x00\n        /* \"random_number_generator.sol\":3721:3722  1 */\n      0x01\n        /* \"random_number_generator.sol\":3711:3717  number */\n      dup3\n        /* \"random_number_generator.sol\":3711:3722  number >= 1 */\n      lt\n      iszero\n        /* \"random_number_generator.sol\":3711:3745  number >= 1 && number <= boardSize */\n      dup1\n      iszero\n      tag_120\n      jumpi\n      pop\n        /* \"random_number_generator.sol\":3736:3745  boardSize */\n      sload(0x05)\n        /* \"random_number_generator.sol\":3726:3732  number */\n      dup3\n        /* \"random_number_generator.sol\":3726:3745  number <= boardSize */\n      gt\n      iszero\n        /* \"random_number_generator.sol\":3711:3745  number >= 1 && number <= boardSize */\n    tag_120:\n        /* \"random_number_generator.sol\":3703:3764  require(number >= 1 && number <= boardSize, \"Invalid number\") */\n      tag_121\n      jumpi\n      mload(0x40)\n      shl(0xe5, 0x461bcd)\n      dup2\n      mstore\n        /* \"#utility.yul\":3729:3731   */\n      0x20\n        /* \"random_number_generator.sol\":3703:3764  require(number >= 1 && number <= boardSize, \"Invalid number\") */\n      0x04\n      dup3\n      add\n        /* \"#utility.yul\":3711:3732   */\n      mstore\n        /* \"#utility.yul\":3768:3770   */\n      0x0e\n        /* \"#utility.yul\":3748:3766   */\n      0x24\n      dup3\n      add\n        /* \"#utility.yul\":3741:3771   */\n      mstore\n        /* \"#utility.yul\":3807:3823   */\n      0x496e76616c6964206e756d626572000000000000000000000000000000000000\n        /* \"#utility.yul\":3787:3805   */\n      0x44\n      dup3\n      add\n        /* \"#utility.yul\":3780:3824   */\n      mstore\n        /* \"#utility.yul\":3841:3859   */\n      0x64\n      add\n        /* \"random_number_generator.sol\":3703:3764  require(number >= 1 && number <= boardSize, \"Invalid number\") */\n      tag_78\n        /* \"#utility.yul\":3527:3865   */\n      jump\n        /* \"random_number_generator.sol\":3703:3764  require(number >= 1 && number <= boardSize, \"Invalid number\") */\n    tag_121:\n      pop\n        /* \"random_number_generator.sol\":3812:3829  currentGeneration */\n      sload(0x09)\n        /* \"random_number_generator.sol\":3782:3808  excludedGeneration[number] */\n      0x00\n      swap2\n      dup3\n      mstore\n        /* \"random_number_generator.sol\":3782:3800  excludedGeneration */\n      0x07\n        /* \"random_number_generator.sol\":3782:3808  excludedGeneration[number] */\n      0x20\n      mstore\n      0x40\n      swap1\n      swap2\n      keccak256\n      sload\n        /* \"random_number_generator.sol\":3782:3829  excludedGeneration[number] == currentGeneration */\n      eq\n      swap1\n        /* \"random_number_generator.sol\":3627:3837  function isExcluded(uint256 number) external view returns (bool) {... */\n      jump\t// out\n        /* \"random_number_generator.sol\":1366:1521  function setSource2(address _source2) external onlyOwner {... */\n    tag_33:\n        /* \"random_number_generator.sol\":1156:1161  owner */\n      and(sub(shl(0xa0, 0x01), 0x01), sload(0x01))\n        /* \"random_number_generator.sol\":1142:1152  msg.sender */\n      caller\n        /* \"random_number_generator.sol\":1142:1161  msg.sender == owner */\n      eq\n        /* \"random_number_generator.sol\":1134:1175  require(msg.sender == owner, \"Not owner\") */\n      tag_125\n      jumpi\n      mload(0x40)\n      shl(0xe5, 0x461bcd)\n      dup2\n      mstore\n        /* \"#utility.yul\":4072:4074   */\n      0x20\n        /* \"random_number_generator.sol\":1134:1175  require(msg.sender == owner, \"Not owner\") */\n      0x04\n      dup3\n      add\n        /* \"#utility.yul\":4054:4075   */\n      mstore\n        /* \"#utility.yul\":4111:4112   */\n      0x09\n        /* \"#utility.yul\":4091:4109   */\n      0x24\n      dup3\n      add\n        /* \"#utility.yul\":4084:4113   */\n      mstore\n      shl(0xb9, 0x2737ba1037bbb732b9)\n        /* \"#utility.yul\":4129:4147   */\n      0x44\n      dup3\n      add\n        /* \"#utility.yul\":4122:4161   */\n      mstore\n        /* \"#utility.yul\":4178:4196   */\n      0x64\n      add\n        /* \"random_number_generator.sol\":1134:1175  require(msg.sender == owner, \"Not owner\") */\n      tag_78\n        /* \"#utility.yul\":3870:4202   */\n      jump\n        /* \"random_number_generator.sol\":1134:1175  require(msg.sender == owner, \"Not owner\") */\n    tag_125:\n      sub(shl(0xa0, 0x01), 0x01)\n        /* \"random_number_generator.sol\":1442:1464  _source2 != address(0) */\n      dup2\n      and\n        /* \"random_number_generator.sol\":1434:1484  require(_source2 != address(0), \"Invalid address\") */\n      tag_129\n      jumpi\n      mload(0x40)\n      shl(0xe5, 0x461bcd)\n      dup2\n      mstore\n        /* \"#utility.yul\":4409:4411   */\n      0x20\n        /* \"random_number_generator.sol\":1434:1484  require(_source2 != address(0), \"Invalid address\") */\n      0x04\n      dup3\n      add\n        /* \"#utility.yul\":4391:4412   */\n      mstore\n        /* \"#utility.yul\":4448:4450   */\n      0x0f\n        /* \"#utility.yul\":4428:4446   */\n      0x24\n      dup3\n      add\n        /* \"#utility.yul\":4421:4451   */\n      mstore\n      shl(0x88, 0x496e76616c69642061646472657373)\n        /* \"#utility.yul\":4467:4485   */\n      0x44\n      dup3\n      add\n        /* \"#utility.yul\":4460:4505   */\n      mstore\n        /* \"#utility.yul\":4522:4540   */\n      0x64\n      add\n        /* \"random_number_generator.sol\":1434:1484  require(_source2 != address(0), \"Invalid address\") */\n      tag_78\n        /* \"#utility.yul\":4207:4546   */\n      jump\n        /* \"random_number_generator.sol\":1434:1484  require(_source2 != address(0), \"Invalid address\") */\n    tag_129:\n        /* \"random_number_generator.sol\":1495:1502  source2 */\n      0x03\n        /* \"random_number_generator.sol\":1495:1513  source2 = _source2 */\n      dup1\n      sload\n      not(sub(shl(0xa0, 0x01), 0x01))\n      and\n      sub(shl(0xa0, 0x01), 0x01)\n      swap3\n      swap1\n      swap3\n      and\n      swap2\n      swap1\n      swap2\n      or\n      swap1\n      sstore\n        /* \"random_number_generator.sol\":1366:1521  function setSource2(address _source2) external onlyOwner {... */\n      jump\t// out\n        /* \"random_number_generator.sol\":1203:1358  function setSource1(address _source1) external onlyOwner {... */\n    tag_43:\n        /* \"random_number_generator.sol\":1156:1161  owner */\n      and(sub(shl(0xa0, 0x01), 0x01), sload(0x01))\n        /* \"random_number_generator.sol\":1142:1152  msg.sender */\n      caller\n        /* \"random_number_generator.sol\":1142:1161  msg.sender == owner */\n      eq\n        /* \"random_number_generator.sol\":1134:1175  require(msg.sender == owner, \"Not owner\") */\n      tag_133\n      jumpi\n      mload(0x40)\n      shl(0xe5, 0x461bcd)\n      dup2\n      mstore\n        /* \"#utility.yul\":4072:4074   */\n      0x20\n        /* \"random_number_generator.sol\":1134:1175  require(msg.sender == owner, \"Not owner\") */\n      0x04\n      dup3\n      add\n        /* \"#utility.yul\":4054:4075   */\n      mstore\n        /* \"#utility.yul\":4111:4112   */\n      0x09\n        /* \"#utility.yul\":4091:4109   */\n      0x24\n      dup3\n      add\n        /* \"#utility.yul\":4084:4113   */\n      mstore\n      shl(0xb9, 0x2737ba1037bbb732b9)\n        /* \"#utility.yul\":4129:4147   */\n      0x44\n      dup3\n      add\n        /* \"#utility.yul\":4122:4161   */\n      mstore\n        /* \"#utility.yul\":4178:4196   */\n      0x64\n      add\n        /* \"random_number_generator.sol\":1134:1175  require(msg.sender == owner, \"Not owner\") */\n      tag_78\n        /* \"#utility.yul\":3870:4202   */\n      jump\n        /* \"random_number_generator.sol\":1134:1175  require(msg.sender == owner, \"Not owner\") */\n    tag_133:\n      sub(shl(0xa0, 0x01), 0x01)\n        /* \"random_number_generator.sol\":1279:1301  _source1 != address(0) */\n      dup2\n      and\n        /* \"random_number_generator.sol\":1271:1321  require(_source1 != address(0), \"Invalid address\") */\n      tag_136\n      jumpi\n      mload(0x40)\n      shl(0xe5, 0x461bcd)\n      dup2\n      mstore\n        /* \"#utility.yul\":4409:4411   */\n      0x20\n        /* \"random_number_generator.sol\":1271:1321  require(_source1 != address(0), \"Invalid address\") */\n      0x04\n      dup3\n      add\n        /* \"#utility.yul\":4391:4412   */\n      mstore\n        /* \"#utility.yul\":4448:4450   */\n      0x0f\n        /* \"#utility.yul\":4428:4446   */\n      0x24\n      dup3\n      add\n        /* \"#utility.yul\":4421:4451   */\n      mstore\n      shl(0x88, 0x496e76616c69642061646472657373)\n        /* \"#utility.yul\":4467:4485   */\n      0x44\n      dup3\n      add\n        /* \"#utility.yul\":4460:4505   */\n      mstore\n        /* \"#utility.yul\":4522:4540   */\n      0x64\n      add\n        /* \"random_number_generator.sol\":1271:1321  require(_source1 != address(0), \"Invalid address\") */\n      tag_78\n        /* \"#utility.yul\":4207:4546   */\n      jump\n        /* \"random_number_generator.sol\":1271:1321  require(_source1 != address(0), \"Invalid address\") */\n    tag_136:\n        /* \"random_number_generator.sol\":1332:1339  source1 */\n      0x02\n        /* \"random_number_generator.sol\":1332:1350  source1 = _source1 */\n      dup1\n      sload\n      not(sub(shl(0xa0, 0x01), 0x01))\n      and\n      sub(shl(0xa0, 0x01), 0x01)\n      swap3\n      swap1\n      swap3\n      and\n      swap2\n      swap1\n      swap2\n      or\n      swap1\n      sstore\n        /* \"random_number_generator.sol\":1203:1358  function setSource1(address _source1) external onlyOwner {... */\n      jump\t// out\n        /* \"random_number_generator.sol\":1529:1684  function setSource3(address _source3) external onlyOwner {... */\n    tag_71:\n        /* \"random_number_generator.sol\":1156:1161  owner */\n      and(sub(shl(0xa0, 0x01), 0x01), sload(0x01))\n        /* \"random_number_generator.sol\":1142:1152  msg.sender */\n      caller\n        /* \"random_number_generator.sol\":1142:1161  msg.sender == owner */\n      eq\n        /* \"random_number_generator.sol\":1134:1175  require(msg.sender == owner, \"Not owner\") */\n      tag_139\n      jumpi\n      mload(0x40)\n      shl(0xe5, 0x461bcd)\n      dup2\n      mstore\n        /* \"#utility.yul\":4072:4074   */\n      0x20\n        /* \"random_number_generator.sol\":1134:1175  require(msg.sender == owner, \"Not owner\") */\n      0x04\n      dup3\n      add\n        /* \"#utility.yul\":4054:4075   */\n      mstore\n        /* \"#utility.yul\":4111:4112   */\n      0x09\n        /* \"#utility.yul\":4091:4109   */\n      0x24\n      dup3\n      add\n        /* \"#utility.yul\":4084:4113   */\n      mstore\n      shl(0xb9, 0x2737ba1037bbb732b9)\n        /* \"#utility.yul\":4129:4147   */\n      0x44\n      dup3\n      add\n        /* \"#utility.yul\":4122:4161   */\n      mstore\n        /* \"#utility.yul\":4178:4196   */\n      0x64\n      add\n        /* \"random_number_generator.sol\":1134:1175  require(msg.sender == owner, \"Not owner\") */\n      tag_78\n        /* \"#utility.yul\":3870:4202   */\n      jump\n        /* \"random_number_generator.sol\":1134:1175  require(msg.sender == owner, \"Not owner\") */\n    tag_139:\n      sub(shl(0xa0, 0x01), 0x01)\n        /* \"random_number_generator.sol\":1605:1627  _source3 != address(0) */\n      dup2\n      and\n        /* \"random_number_generator.sol\":1597:1647  require(_source3 != address(0), \"Invalid address\") */\n      tag_142\n      jumpi\n      mload(0x40)\n      shl(0xe5, 0x461bcd)\n      dup2\n      mstore\n        /* \"#utility.yul\":4409:4411   */\n      0x20\n        /* \"random_number_generator.sol\":1597:1647  require(_source3 != address(0), \"Invalid address\") */\n      0x04\n      dup3\n      add\n        /* \"#utility.yul\":4391:4412   */\n      mstore\n        /* \"#utility.yul\":4448:4450   */\n      0x0f\n        /* \"#utility.yul\":4428:4446   */\n      0x24\n      dup3\n      add\n        /* \"#utility.yul\":4421:4451   */\n      mstore\n      shl(0x88, 0x496e76616c69642061646472657373)\n        /* \"#utility.yul\":4467:4485   */\n      0x44\n      dup3\n      add\n        /* \"#utility.yul\":4460:4505   */\n      mstore\n        /* \"#utility.yul\":4522:4540   */\n      0x64\n      add\n        /* \"random_number_generator.sol\":1597:1647  require(_source3 != address(0), \"Invalid address\") */\n      tag_78\n        /* \"#utility.yul\":4207:4546   */\n      jump\n        /* \"random_number_generator.sol\":1597:1647  require(_source3 != address(0), \"Invalid address\") */\n    tag_142:\n        /* \"random_number_generator.sol\":1658:1665  source3 */\n      0x04\n        /* \"random_number_generator.sol\":1658:1676  source3 = _source3 */\n      dup1\n      sload\n      not(sub(shl(0xa0, 0x01), 0x01))\n      and\n      sub(shl(0xa0, 0x01), 0x01)\n      swap3\n      swap1\n      swap3\n      and\n      swap2\n      swap1\n      swap2\n      or\n      swap1\n      sstore\n        /* \"random_number_generator.sol\":1529:1684  function setSource3(address _source3) external onlyOwner {... */\n      jump\t// out\n        /* \"#utility.yul\":14:194   */\n    tag_26:\n        /* \"#utility.yul\":73:79   */\n      0x00\n        /* \"#utility.yul\":126:128   */\n      0x20\n        /* \"#utility.yul\":114:123   */\n      dup3\n        /* \"#utility.yul\":105:112   */\n      dup5\n        /* \"#utility.yul\":101:124   */\n      sub\n        /* \"#utility.yul\":97:129   */\n      slt\n        /* \"#utility.yul\":94:146   */\n      iszero\n      tag_147\n      jumpi\n        /* \"#utility.yul\":142:143   */\n      0x00\n        /* \"#utility.yul\":139:140   */\n      dup1\n        /* \"#utility.yul\":132:144   */\n      revert\n        /* \"#utility.yul\":94:146   */\n    tag_147:\n      pop\n        /* \"#utility.yul\":165:188   */\n      calldataload\n      swap2\n        /* \"#utility.yul\":14:194   */\n      swap1\n      pop\n      jump\t// out\n        /* \"#utility.yul\":391:700   */\n    tag_32:\n        /* \"#utility.yul\":450:456   */\n      0x00\n        /* \"#utility.yul\":503:505   */\n      0x20\n        /* \"#utility.yul\":491:500   */\n      dup3\n        /* \"#utility.yul\":482:489   */\n      dup5\n        /* \"#utility.yul\":478:501   */\n      sub\n        /* \"#utility.yul\":474:506   */\n      slt\n        /* \"#utility.yul\":471:523   */\n      iszero\n      tag_150\n      jumpi\n        /* \"#utility.yul\":519:520   */\n      0x00\n        /* \"#utility.yul\":516:517   */\n      dup1\n        /* \"#utility.yul\":509:521   */\n      revert\n        /* \"#utility.yul\":471:523   */\n    tag_150:\n        /* \"#utility.yul\":558:567   */\n      dup2\n        /* \"#utility.yul\":545:568   */\n      calldataload\n      sub(shl(0xa0, 0x01), 0x01)\n        /* \"#utility.yul\":601:606   */\n      dup2\n        /* \"#utility.yul\":597:651   */\n      and\n        /* \"#utility.yul\":590:595   */\n      dup2\n        /* \"#utility.yul\":587:652   */\n      eq\n        /* \"#utility.yul\":577:670   */\n      tag_151\n      jumpi\n        /* \"#utility.yul\":666:667   */\n      0x00\n        /* \"#utility.yul\":663:664   */\n      dup1\n        /* \"#utility.yul\":656:668   */\n      revert\n        /* \"#utility.yul\":577:670   */\n    tag_151:\n        /* \"#utility.yul\":689:694   */\n      swap4\n        /* \"#utility.yul\":391:700   */\n      swap3\n      pop\n      pop\n      pop\n      jump\t// out\n        /* \"#utility.yul\":2029:2238   */\n    tag_83:\n        /* \"#utility.yul\":2061:2062   */\n      0x00\n        /* \"#utility.yul\":2087:2088   */\n      dup3\n        /* \"#utility.yul\":2077:2209   */\n      tag_158\n      jumpi\n        /* \"#utility.yul\":2131:2141   */\n      0x4e487b71\n        /* \"#utility.yul\":2126:2129   */\n      0xe0\n        /* \"#utility.yul\":2122:2142   */\n      shl\n        /* \"#utility.yul\":2119:2120   */\n      0x00\n        /* \"#utility.yul\":2112:2143   */\n      mstore\n        /* \"#utility.yul\":2166:2170   */\n      0x12\n        /* \"#utility.yul\":2163:2164   */\n      0x04\n        /* \"#utility.yul\":2156:2171   */\n      mstore\n        /* \"#utility.yul\":2194:2198   */\n      0x24\n        /* \"#utility.yul\":2191:2192   */\n      0x00\n        /* \"#utility.yul\":2184:2199   */\n      revert\n        /* \"#utility.yul\":2077:2209   */\n    tag_158:\n      pop\n        /* \"#utility.yul\":2223:2232   */\n      mod\n      swap1\n        /* \"#utility.yul\":2029:2238   */\n      jump\t// out\n        /* \"#utility.yul\":2243:2370   */\n    tag_144:\n        /* \"#utility.yul\":2304:2314   */\n      0x4e487b71\n        /* \"#utility.yul\":2299:2302   */\n      0xe0\n        /* \"#utility.yul\":2295:2315   */\n      shl\n        /* \"#utility.yul\":2292:2293   */\n      0x00\n        /* \"#utility.yul\":2285:2316   */\n      mstore\n        /* \"#utility.yul\":2335:2339   */\n      0x11\n        /* \"#utility.yul\":2332:2333   */\n      0x04\n        /* \"#utility.yul\":2325:2340   */\n      mstore\n        /* \"#utility.yul\":2359:2363   */\n      0x24\n        /* \"#utility.yul\":2356:2357   */\n      0x00\n        /* \"#utility.yul\":2349:2364   */\n      revert\n        /* \"#utility.yul\":2375:2500   */\n    tag_85:\n        /* \"#utility.yul\":2440:2449   */\n      dup1\n      dup3\n      add\n        /* \"#utility.yul\":2461:2471   */\n      dup1\n      dup3\n      gt\n        /* \"#utility.yul\":2458:2494   */\n      iszero\n      tag_162\n      jumpi\n        /* \"#utility.yul\":2474:2492   */\n      tag_162\n      tag_144\n      jump\t// in\n    tag_162:\n        /* \"#utility.yul\":2375:2500   */\n      swap3\n      swap2\n      pop\n      pop\n      jump\t// out\n        /* \"#utility.yul\":2505:2689   */\n    tag_91:\n        /* \"#utility.yul\":2575:2581   */\n      0x00\n        /* \"#utility.yul\":2628:2630   */\n      0x20\n        /* \"#utility.yul\":2616:2625   */\n      dup3\n        /* \"#utility.yul\":2607:2614   */\n      dup5\n        /* \"#utility.yul\":2603:2626   */\n      sub\n        /* \"#utility.yul\":2599:2631   */\n      slt\n        /* \"#utility.yul\":2596:2648   */\n      iszero\n      tag_164\n      jumpi\n        /* \"#utility.yul\":2644:2645   */\n      0x00\n        /* \"#utility.yul\":2641:2642   */\n      dup1\n        /* \"#utility.yul\":2634:2646   */\n      revert\n        /* \"#utility.yul\":2596:2648   */\n    tag_164:\n      pop\n        /* \"#utility.yul\":2667:2683   */\n      mload\n      swap2\n        /* \"#utility.yul\":2505:2689   */\n      swap1\n      pop\n      jump\t// out\n        /* \"#utility.yul\":2993:3128   */\n    tag_105:\n        /* \"#utility.yul\":3032:3035   */\n      0x00\n        /* \"#utility.yul\":3053:3070   */\n      0x01\n      dup3\n      add\n        /* \"#utility.yul\":3050:3093   */\n      tag_168\n      jumpi\n        /* \"#utility.yul\":3073:3091   */\n      tag_168\n      tag_144\n      jump\t// in\n    tag_168:\n      pop\n        /* \"#utility.yul\":3120:3121   */\n      0x01\n        /* \"#utility.yul\":3109:3122   */\n      add\n      swap1\n        /* \"#utility.yul\":2993:3128   */\n      jump\t// out\n        /* \"#utility.yul\":3133:3269   */\n    tag_113:\n        /* \"#utility.yul\":3172:3175   */\n      0x00\n        /* \"#utility.yul\":3200:3205   */\n      dup2\n        /* \"#utility.yul\":3190:3229   */\n      tag_171\n      jumpi\n        /* \"#utility.yul\":3209:3227   */\n      tag_171\n      tag_144\n      jump\t// in\n    tag_171:\n      pop\n      not(0x00)\n        /* \"#utility.yul\":3245:3263   */\n      add\n      swap1\n        /* \"#utility.yul\":3133:3269   */\n      jump\t// out\n\n    auxdata: 0xa26469706673582212209ed1a1502b71c79a2944b71ceec67a3313be87e218627215621b036fcfebf22e64736f6c63430008130033\n}\n",
				"bytecode": {
					"linkReferences": {},
					"object": "608060405234801561001057600080fd5b50604051610a5d380380610a5d83398101604081905261002f9161011f565b600082116100845760405162461bcd60e51b815260206004820152601660248201527f426f6172642073697a65206d757374206265203e20300000000000000000000060448201526064015b60405180910390fd5b6000811180156100945750818111155b6100e05760405162461bcd60e51b815260206004820152601760248201527f496e76616c6964207265736574207468726573686f6c64000000000000000000604482015260640161007b565b60018054336001600160a01b0319918216178255600080549091166001600160a01b039590951694909417909355600591909155600655600955610162565b60008060006060848603121561013457600080fd5b83516001600160a01b038116811461014b57600080fd5b602085015160409095015190969495509392505050565b6108ec806101716000396000f3fe608060405234801561001057600080fd5b50600436106101005760003560e01c806396a1204911610097578063c51d69f411610066578063c51d69f4146101f3578063d8cb09b1146101fc578063e7f571b214610205578063fc0c546a1461021857600080fd5b806396a12049146101b15780639c2cf049146101c4578063c0c8ebe1146101d7578063c19e789b146101e057600080fd5b806321e1ba4e116100d357806321e1ba4e146101615780634134acff1461016a5780638da5cb5b1461017d5780638ddb428a146101a857600080fd5b806302e4af01146101055780630a272a0a1461010f57806310c40e4e1461013757806315aaa4501461014a575b600080fd5b61010d61022b565b005b61012261011d3660046107d3565b61054a565b60405190151581526020015b60405180910390f35b61010d6101453660046107ec565b6105c3565b610153600b5481565b60405190815260200161012e565b610153600a5481565b61010d6101783660046107ec565b610673565b600154610190906001600160a01b031681565b6040516001600160a01b03909116815260200161012e565b61015360095481565b600254610190906001600160a01b031681565b600354610190906001600160a01b031681565b61015360085481565b600454610190906001600160a01b031681565b61015360055481565b61015360065481565b61010d6102133660046107ec565b610723565b600054610190906001600160a01b031681565b6000600554116102825760405162461bcd60e51b815260206004820152601560248201527f426f617264206e6f7420696e697469616c697a6564000000000000000000000060448201526064015b60405180910390fd5b600254600354600454604080516001600160a01b039485163160208201529284163190830152919091163160608201526000906080016040516020818303038152906040528051906020012060001c90506000600554826102e3919061081c565b6102ee906001610854565b905060006102fd60028361081c565b600080546040516370a0823160e01b8152336004820152600193909314935090916001600160a01b03909116906370a0823190602401602060405180830381865afa158015610350573d6000803e3d6000fd5b505050506040513d601f19601f82011682018060405250810190610374919061086d565b6040516bffffffffffffffffffffffff193360601b166020820152603481018290529091506000906054016040516020818303038152906040528051906020012060001c90506000600554826103ca919061081c565b6103d5906001610854565b905060006103e460028361081c565b6001149050600060055483886103fa9190610854565b610404919061081c565b61040f906001610854565b60095460008281526007602052604090205491925090036104ad5781151586151503610472575b6009546000828152600760205260409020540361046d578061045781610886565b915050600554811115610468575060015b610436565b6104ad565b5b600954600082815260076020526040902054036104ad578060010361049b5750600554610473565b806104a58161089f565b915050610473565b60095460008281526007602052604081209190915560088054916104d083610886565b9190505550600654600854106104fb57600980549060006104f083610886565b909155505060006008555b600a81905542600b8190556040805183815260208101929092527f252851c72bba973a3eff4c55d976631b74c5e463b736ab3ba7ea37cbe40bbc19910160405180910390a15050505050505050565b60006001821015801561055f57506005548211155b6105ab5760405162461bcd60e51b815260206004820152600e60248201527f496e76616c6964206e756d6265720000000000000000000000000000000000006044820152606401610279565b50600954600091825260076020526040909120541490565b6001546001600160a01b031633146106095760405162461bcd60e51b81526020600482015260096024820152682737ba1037bbb732b960b91b6044820152606401610279565b6001600160a01b0381166106515760405162461bcd60e51b815260206004820152600f60248201526e496e76616c6964206164647265737360881b6044820152606401610279565b600380546001600160a01b0319166001600160a01b0392909216919091179055565b6001546001600160a01b031633146106b95760405162461bcd60e51b81526020600482015260096024820152682737ba1037bbb732b960b91b6044820152606401610279565b6001600160a01b0381166107015760405162461bcd60e51b815260206004820152600f60248201526e496e76616c6964206164647265737360881b6044820152606401610279565b600280546001600160a01b0319166001600160a01b0392909216919091179055565b6001546001600160a01b031633146107695760405162461bcd60e51b81526020600482015260096024820152682737ba1037bbb732b960b91b6044820152606401610279565b6001600160a01b0381166107b15760405162461bcd60e51b815260206004820152600f60248201526e496e76616c6964206164647265737360881b6044820152606401610279565b600480546001600160a01b0319166001600160a01b0392909216919091179055565b6000602082840312156107e557600080fd5b5035919050565b6000602082840312156107fe57600080fd5b81356001600160a01b038116811461081557600080fd5b9392505050565b60008261083957634e487b7160e01b600052601260045260246000fd5b500690565b634e487b7160e01b600052601160045260246000fd5b808201808211156108675761086761083e565b92915050565b60006020828403121561087f57600080fd5b5051919050565b6000600182016108985761089861083e565b5060010190565b6000816108ae576108ae61083e565b50600019019056fea26469706673582212209ed1a1502b71c79a2944b71ceec67a3313be87e218627215621b036fcfebf22e64736f6c63430008130033",
					"opcodes": "PUSH1 0x80 PUSH1 0x40 MSTORE CALLVALUE DUP1 ISZERO PUSH2 0x10 JUMPI PUSH1 0x0 DUP1 REVERT JUMPDEST POP PUSH1 0x40 MLOAD PUSH2 0xA5D CODESIZE SUB DUP1 PUSH2 0xA5D DUP4 CODECOPY DUP2 ADD PUSH1 0x40 DUP2 SWAP1 MSTORE PUSH2 0x2F SWAP2 PUSH2 0x11F JUMP JUMPDEST PUSH1 0x0 DUP3 GT PUSH2 0x84 JUMPI PUSH1 0x40 MLOAD PUSH3 0x461BCD PUSH1 0xE5 SHL DUP2 MSTORE PUSH1 0x20 PUSH1 0x4 DUP3 ADD MSTORE PUSH1 0x16 PUSH1 0x24 DUP3 ADD MSTORE PUSH32 0x426F6172642073697A65206D757374206265203E203000000000000000000000 PUSH1 0x44 DUP3 ADD MSTORE PUSH1 0x64 ADD JUMPDEST PUSH1 0x40 MLOAD DUP1 SWAP2 SUB SWAP1 REVERT JUMPDEST PUSH1 0x0 DUP2 GT DUP1 ISZERO PUSH2 0x94 JUMPI POP DUP2 DUP2 GT ISZERO JUMPDEST PUSH2 0xE0 JUMPI PUSH1 0x40 MLOAD PUSH3 0x461BCD PUSH1 0xE5 SHL DUP2 MSTORE PUSH1 0x20 PUSH1 0x4 DUP3 ADD MSTORE PUSH1 0x17 PUSH1 0x24 DUP3 ADD MSTORE PUSH32 0x496E76616C6964207265736574207468726573686F6C64000000000000000000 PUSH1 0x44 DUP3 ADD MSTORE PUSH1 0x64 ADD PUSH2 0x7B JUMP JUMPDEST PUSH1 0x1 DUP1 SLOAD CALLER PUSH1 0x1 PUSH1 0x1 PUSH1 0xA0 SHL SUB NOT SWAP2 DUP3 AND OR DUP3 SSTORE PUSH1 0x0 DUP1 SLOAD SWAP1 SWAP2 AND PUSH1 0x1 PUSH1 0x1 PUSH1 0xA0 SHL SUB SWAP6 SWAP1 SWAP6 AND SWAP5 SWAP1 SWAP5 OR SWAP1 SWAP4 SSTORE PUSH1 0x5 SWAP2 SWAP1 SWAP2 SSTORE PUSH1 0x6 SSTORE PUSH1 0x9 SSTORE PUSH2 0x162 JUMP JUMPDEST PUSH1 0x0 DUP1 PUSH1 0x0 PUSH1 0x60 DUP5 DUP7 SUB SLT ISZERO PUSH2 0x134 JUMPI PUSH1 0x0 DUP1 REVERT JUMPDEST DUP4 MLOAD PUSH1 0x1 PUSH1 0x1 PUSH1 0xA0 SHL SUB DUP2 AND DUP2 EQ PUSH2 0x14B JUMPI PUSH1 0x0 DUP1 REVERT JUMPDEST PUSH1 0x20 DUP6 ADD MLOAD PUSH1 0x40 SWAP1 SWAP6 ADD MLOAD SWAP1 SWAP7 SWAP5 SWAP6 POP SWAP4 SWAP3 POP POP POP JUMP JUMPDEST PUSH2 0x8EC DUP1 PUSH2 0x171 PUSH1 0x0 CODECOPY PUSH1 0x0 RETURN INVALID PUSH1 0x80 PUSH1 0x40 MSTORE CALLVALUE DUP1 ISZERO PUSH2 0x10 JUMPI PUSH1 0x0 DUP1 REVERT JUMPDEST POP PUSH1 0x4 CALLDATASIZE LT PUSH2 0x100 JUMPI PUSH1 0x0 CALLDATALOAD PUSH1 0xE0 SHR DUP1 PUSH4 0x96A12049 GT PUSH2 0x97 JUMPI DUP1 PUSH4 0xC51D69F4 GT PUSH2 0x66 JUMPI DUP1 PUSH4 0xC51D69F4 EQ PUSH2 0x1F3 JUMPI DUP1 PUSH4 0xD8CB09B1 EQ PUSH2 0x1FC JUMPI DUP1 PUSH4 0xE7F571B2 EQ PUSH2 0x205 JUMPI DUP1 PUSH4 0xFC0C546A EQ PUSH2 0x218 JUMPI PUSH1 0x0 DUP1 REVERT JUMPDEST DUP1 PUSH4 0x96A12049 EQ PUSH2 0x1B1 JUMPI DUP1 PUSH4 0x9C2CF049 EQ PUSH2 0x1C4 JUMPI DUP1 PUSH4 0xC0C8EBE1 EQ PUSH2 0x1D7 JUMPI DUP1 PUSH4 0xC19E789B EQ PUSH2 0x1E0 JUMPI PUSH1 0x0 DUP1 REVERT JUMPDEST DUP1 PUSH4 0x21E1BA4E GT PUSH2 0xD3 JUMPI DUP1 PUSH4 0x21E1BA4E EQ PUSH2 0x161 JUMPI DUP1 PUSH4 0x4134ACFF EQ PUSH2 0x16A JUMPI DUP1 PUSH4 0x8DA5CB5B EQ PUSH2 0x17D JUMPI DUP1 PUSH4 0x8DDB428A EQ PUSH2 0x1A8 JUMPI PUSH1 0x0 DUP1 REVERT JUMPDEST DUP1 PUSH4 0x2E4AF01 EQ PUSH2 0x105 JUMPI DUP1 PUSH4 0xA272A0A EQ PUSH2 0x10F JUMPI DUP1 PUSH4 0x10C40E4E EQ PUSH2 0x137 JUMPI DUP1 PUSH4 0x15AAA450 EQ PUSH2 0x14A JUMPI JUMPDEST PUSH1 0x0 DUP1 REVERT JUMPDEST PUSH2 0x10D PUSH2 0x22B JUMP JUMPDEST STOP JUMPDEST PUSH2 0x122 PUSH2 0x11D CALLDATASIZE PUSH1 0x4 PUSH2 0x7D3 JUMP JUMPDEST PUSH2 0x54A JUMP JUMPDEST PUSH1 0x40 MLOAD SWAP1 ISZERO ISZERO DUP2 MSTORE PUSH1 0x20 ADD JUMPDEST PUSH1 0x40 MLOAD DUP1 SWAP2 SUB SWAP1 RETURN JUMPDEST PUSH2 0x10D PUSH2 0x145 CALLDATASIZE PUSH1 0x4 PUSH2 0x7EC JUMP JUMPDEST PUSH2 0x5C3 JUMP JUMPDEST PUSH2 0x153 PUSH1 0xB SLOAD DUP2 JUMP JUMPDEST PUSH1 0x40 MLOAD SWAP1 DUP2 MSTORE PUSH1 0x20 ADD PUSH2 0x12E JUMP JUMPDEST PUSH2 0x153 PUSH1 0xA SLOAD DUP2 JUMP JUMPDEST PUSH2 0x10D PUSH2 0x178 CALLDATASIZE PUSH1 0x4 PUSH2 0x7EC JUMP JUMPDEST PUSH2 0x673 JUMP JUMPDEST PUSH1 0x1 SLOAD PUSH2 0x190 SWAP1 PUSH1 0x1 PUSH1 0x1 PUSH1 0xA0 SHL SUB AND DUP2 JUMP JUMPDEST PUSH1 0x40 MLOAD PUSH1 0x1 PUSH1 0x1 PUSH1 0xA0 SHL SUB SWAP1 SWAP2 AND DUP2 MSTORE PUSH1 0x20 ADD PUSH2 0x12E JUMP JUMPDEST PUSH2 0x153 PUSH1 0x9 SLOAD DUP2 JUMP JUMPDEST PUSH1 0x2 SLOAD PUSH2 0x190 SWAP1 PUSH1 0x1 PUSH1 0x1 PUSH1 0xA0 SHL SUB AND DUP2 JUMP JUMPDEST PUSH1 0x3 SLOAD PUSH2 0x190 SWAP1 PUSH1 0x1 PUSH1 0x1 PUSH1 0xA0 SHL SUB AND DUP2 JUMP JUMPDEST PUSH2 0x153 PUSH1 0x8 SLOAD DUP2 JUMP JUMPDEST PUSH1 0x4 SLOAD PUSH2 0x190 SWAP1 PUSH1 0x1 PUSH1 0x1 PUSH1 0xA0 SHL SUB AND DUP2 JUMP JUMPDEST PUSH2 0x153 PUSH1 0x5 SLOAD DUP2 JUMP JUMPDEST PUSH2 0x153 PUSH1 0x6 SLOAD DUP2 JUMP JUMPDEST PUSH2 0x10D PUSH2 0x213 CALLDATASIZE PUSH1 0x4 PUSH2 0x7EC JUMP JUMPDEST PUSH2 0x723 JUMP JUMPDEST PUSH1 0x0 SLOAD PUSH2 0x190 SWAP1 PUSH1 0x1 PUSH1 0x1 PUSH1 0xA0 SHL SUB AND DUP2 JUMP JUMPDEST PUSH1 0x0 PUSH1 0x5 SLOAD GT PUSH2 0x282 JUMPI PUSH1 0x40 MLOAD PUSH3 0x461BCD PUSH1 0xE5 SHL DUP2 MSTORE PUSH1 0x20 PUSH1 0x4 DUP3 ADD MSTORE PUSH1 0x15 PUSH1 0x24 DUP3 ADD MSTORE PUSH32 0x426F617264206E6F7420696E697469616C697A65640000000000000000000000 PUSH1 0x44 DUP3 ADD MSTORE PUSH1 0x64 ADD JUMPDEST PUSH1 0x40 MLOAD DUP1 SWAP2 SUB SWAP1 REVERT JUMPDEST PUSH1 0x2 SLOAD PUSH1 0x3 SLOAD PUSH1 0x4 SLOAD PUSH1 0x40 DUP1 MLOAD PUSH1 0x1 PUSH1 0x1 PUSH1 0xA0 SHL SUB SWAP5 DUP6 AND BALANCE PUSH1 0x20 DUP3 ADD MSTORE SWAP3 DUP5 AND BALANCE SWAP1 DUP4 ADD MSTORE SWAP2 SWAP1 SWAP2 AND BALANCE PUSH1 0x60 DUP3 ADD MSTORE PUSH1 0x0 SWAP1 PUSH1 0x80 ADD PUSH1 0x40 MLOAD PUSH1 0x20 DUP2 DUP4 SUB SUB DUP2 MSTORE SWAP1 PUSH1 0x40 MSTORE DUP1 MLOAD SWAP1 PUSH1 0x20 ADD KECCAK256 PUSH1 0x0 SHR SWAP1 POP PUSH1 0x0 PUSH1 0x5 SLOAD DUP3 PUSH2 0x2E3 SWAP2 SWAP1 PUSH2 0x81C JUMP JUMPDEST PUSH2 0x2EE SWAP1 PUSH1 0x1 PUSH2 0x854 JUMP JUMPDEST SWAP1 POP PUSH1 0x0 PUSH2 0x2FD PUSH1 0x2 DUP4 PUSH2 0x81C JUMP JUMPDEST PUSH1 0x0 DUP1 SLOAD PUSH1 0x40 MLOAD PUSH4 0x70A08231 PUSH1 0xE0 SHL DUP2 MSTORE CALLER PUSH1 0x4 DUP3 ADD MSTORE PUSH1 0x1 SWAP4 SWAP1 SWAP4 EQ SWAP4 POP SWAP1 SWAP2 PUSH1 0x1 PUSH1 0x1 PUSH1 0xA0 SHL SUB SWAP1 SWAP2 AND SWAP1 PUSH4 0x70A08231 SWAP1 PUSH1 0x24 ADD PUSH1 0x20 PUSH1 0x40 MLOAD DUP1 DUP4 SUB DUP2 DUP7 GAS STATICCALL ISZERO DUP1 ISZERO PUSH2 0x350 JUMPI RETURNDATASIZE PUSH1 0x0 DUP1 RETURNDATACOPY RETURNDATASIZE PUSH1 0x0 REVERT JUMPDEST POP POP POP POP PUSH1 0x40 MLOAD RETURNDATASIZE PUSH1 0x1F NOT PUSH1 0x1F DUP3 ADD AND DUP3 ADD DUP1 PUSH1 0x40 MSTORE POP DUP2 ADD SWAP1 PUSH2 0x374 SWAP2 SWAP1 PUSH2 0x86D JUMP JUMPDEST PUSH1 0x40 MLOAD PUSH12 0xFFFFFFFFFFFFFFFFFFFFFFFF NOT CALLER PUSH1 0x60 SHL AND PUSH1 0x20 DUP3 ADD MSTORE PUSH1 0x34 DUP2 ADD DUP3 SWAP1 MSTORE SWAP1 SWAP2 POP PUSH1 0x0 SWAP1 PUSH1 0x54 ADD PUSH1 0x40 MLOAD PUSH1 0x20 DUP2 DUP4 SUB SUB DUP2 MSTORE SWAP1 PUSH1 0x40 MSTORE DUP1 MLOAD SWAP1 PUSH1 0x20 ADD KECCAK256 PUSH1 0x0 SHR SWAP1 POP PUSH1 0x0 PUSH1 0x5 SLOAD DUP3 PUSH2 0x3CA SWAP2 SWAP1 PUSH2 0x81C JUMP JUMPDEST PUSH2 0x3D5 SWAP1 PUSH1 0x1 PUSH2 0x854 JUMP JUMPDEST SWAP1 POP PUSH1 0x0 PUSH2 0x3E4 PUSH1 0x2 DUP4 PUSH2 0x81C JUMP JUMPDEST PUSH1 0x1 EQ SWAP1 POP PUSH1 0x0 PUSH1 0x5 SLOAD DUP4 DUP9 PUSH2 0x3FA SWAP2 SWAP1 PUSH2 0x854 JUMP JUMPDEST PUSH2 0x404 SWAP2 SWAP1 PUSH2 0x81C JUMP JUMPDEST PUSH2 0x40F SWAP1 PUSH1 0x1 PUSH2 0x854 JUMP JUMPDEST PUSH1 0x9 SLOAD PUSH1 0x0 DUP3 DUP2 MSTORE PUSH1 0x7 PUSH1 0x20 MSTORE PUSH1 0x40 SWAP1 KECCAK256 SLOAD SWAP2 SWAP3 POP SWAP1 SUB PUSH2 0x4AD JUMPI DUP2 ISZERO ISZERO DUP7 ISZERO ISZERO SUB PUSH2 0x472 JUMPI JUMPDEST PUSH1 0x9 SLOAD PUSH1 0x0 DUP3 DUP2 MSTORE PUSH1 0x7 PUSH1 0x20 MSTORE PUSH1 0x40 SWAP1 KECCAK256 SLOAD SUB PUSH2 0x46D JUMPI DUP1 PUSH2 0x457 DUP2 PUSH2 0x886 JUMP JUMPDEST SWAP2 POP POP PUSH1 0x5 SLOAD DUP2 GT ISZERO PUSH2 0x468 JUMPI POP PUSH1 0x1 JUMPDEST PUSH2 0x436 JUMP JUMPDEST PUSH2 0x4AD JUMP JUMPDEST JUMPDEST PUSH1 0x9 SLOAD PUSH1 0x0 DUP3 DUP2 MSTORE PUSH1 0x7 PUSH1 0x20 MSTORE PUSH1 0x40 SWAP1 KECCAK256 SLOAD SUB PUSH2 0x4AD JUMPI DUP1 PUSH1 0x1 SUB PUSH2 0x49B JUMPI POP PUSH1 0x5 SLOAD PUSH2 0x473 JUMP JUMPDEST DUP1 PUSH2 0x4A5 DUP2 PUSH2 0x89F JUMP JUMPDEST SWAP2 POP POP PUSH2 0x473 JUMP JUMPDEST PUSH1 0x9 SLOAD PUSH1 0x0 DUP3 DUP2 MSTORE PUSH1 0x7 PUSH1 0x20 MSTORE PUSH1 0x40 DUP2 KECCAK256 SWAP2 SWAP1 SWAP2 SSTORE PUSH1 0x8 DUP1 SLOAD SWAP2 PUSH2 0x4D0 DUP4 PUSH2 0x886 JUMP JUMPDEST SWAP2 SWAP1 POP SSTORE POP PUSH1 0x6 SLOAD PUSH1 0x8 SLOAD LT PUSH2 0x4FB JUMPI PUSH1 0x9 DUP1 SLOAD SWAP1 PUSH1 0x0 PUSH2 0x4F0 DUP4 PUSH2 0x886 JUMP JUMPDEST SWAP1 SWAP2 SSTORE POP POP PUSH1 0x0 PUSH1 0x8 SSTORE JUMPDEST PUSH1 0xA DUP2 SWAP1 SSTORE TIMESTAMP PUSH1 0xB DUP2 SWAP1 SSTORE PUSH1 0x40 DUP1 MLOAD DUP4 DUP2 MSTORE PUSH1 0x20 DUP2 ADD SWAP3 SWAP1 SWAP3 MSTORE PUSH32 0x252851C72BBA973A3EFF4C55D976631B74C5E463B736AB3BA7EA37CBE40BBC19 SWAP2 ADD PUSH1 0x40 MLOAD DUP1 SWAP2 SUB SWAP1 LOG1 POP POP POP POP POP POP POP POP JUMP JUMPDEST PUSH1 0x0 PUSH1 0x1 DUP3 LT ISZERO DUP1 ISZERO PUSH2 0x55F JUMPI POP PUSH1 0x5 SLOAD DUP3 GT ISZERO JUMPDEST PUSH2 0x5AB JUMPI PUSH1 0x40 MLOAD PUSH3 0x461BCD PUSH1 0xE5 SHL DUP2 MSTORE PUSH1 0x20 PUSH1 0x4 DUP3 ADD MSTORE PUSH1 0xE PUSH1 0x24 DUP3 ADD MSTORE PUSH32 0x496E76616C6964206E756D626572000000000000000000000000000000000000 PUSH1 0x44 DUP3 ADD MSTORE PUSH1 0x64 ADD PUSH2 0x279 JUMP JUMPDEST POP PUSH1 0x9 SLOAD PUSH1 0x0 SWAP2 DUP3 MSTORE PUSH1 0x7 PUSH1 0x20 MSTORE PUSH1 0x40 SWAP1 SWAP2 KECCAK256 SLOAD EQ SWAP1 JUMP JUMPDEST PUSH1 0x1 SLOAD PUSH1 0x1 PUSH1 0x1 PUSH1 0xA0 SHL SUB AND CALLER EQ PUSH2 0x609 JUMPI PUSH1 0x40 MLOAD PUSH3 0x461BCD PUSH1 0xE5 SHL DUP2 MSTORE PUSH1 0x20 PUSH1 0x4 DUP3 ADD MSTORE PUSH1 0x9 PUSH1 0x24 DUP3 ADD MSTORE PUSH9 0x2737BA1037BBB732B9 PUSH1 0xB9 SHL PUSH1 0x44 DUP3 ADD MSTORE PUSH1 0x64 ADD PUSH2 0x279 JUMP JUMPDEST PUSH1 0x1 PUSH1 0x1 PUSH1 0xA0 SHL SUB DUP2 AND PUSH2 0x651 JUMPI PUSH1 0x40 MLOAD PUSH3 0x461BCD PUSH1 0xE5 SHL DUP2 MSTORE PUSH1 0x20 PUSH1 0x4 DUP3 ADD MSTORE PUSH1 0xF PUSH1 0x24 DUP3 ADD MSTORE PUSH15 0x496E76616C69642061646472657373 PUSH1 0x88 SHL PUSH1 0x44 DUP3 ADD MSTORE PUSH1 0x64 ADD PUSH2 0x279 JUMP JUMPDEST PUSH1 0x3 DUP1 SLOAD PUSH1 0x1 PUSH1 0x1 PUSH1 0xA0 SHL SUB NOT AND PUSH1 0x1 PUSH1 0x1 PUSH1 0xA0 SHL SUB SWAP3 SWAP1 SWAP3 AND SWAP2 SWAP1 SWAP2 OR SWAP1 SSTORE JUMP JUMPDEST PUSH1 0x1 SLOAD PUSH1 0x1 PUSH1 0x1 PUSH1 0xA0 SHL SUB AND CALLER EQ PUSH2 0x6B9 JUMPI PUSH1 0x40 MLOAD PUSH3 0x461BCD PUSH1 0xE5 SHL DUP2 MSTORE PUSH1 0x20 PUSH1 0x4 DUP3 ADD MSTORE PUSH1 0x9 PUSH1 0x24 DUP3 ADD MSTORE PUSH9 0x2737BA1037BBB732B9 PUSH1 0xB9 SHL PUSH1 0x44 DUP3 ADD MSTORE PUSH1 0x64 ADD PUSH2 0x279 JUMP JUMPDEST PUSH1 0x1 PUSH1 0x1 PUSH1 0xA0 SHL SUB DUP2 AND PUSH2 0x701 JUMPI PUSH1 0x40 MLOAD PUSH3 0x461BCD PUSH1 0xE5 SHL DUP2 MSTORE PUSH1 0x20 PUSH1 0x4 DUP3 ADD MSTORE PUSH1 0xF PUSH1 0x24 DUP3 ADD MSTORE PUSH15 0x496E76616C69642061646472657373 PUSH1 0x88 SHL PUSH1 0x44 DUP3 ADD MSTORE PUSH1 0x64 ADD PUSH2 0x279 JUMP JUMPDEST PUSH1 0x2 DUP1 SLOAD PUSH1 0x1 PUSH1 0x1 PUSH1 0xA0 SHL SUB NOT AND PUSH1 0x1 PUSH1 0x1 PUSH1 0xA0 SHL SUB SWAP3 SWAP1 SWAP3 AND SWAP2 SWAP1 SWAP2 OR SWAP1 SSTORE JUMP JUMPDEST PUSH1 0x1 SLOAD PUSH1 0x1 PUSH1 0x1 PUSH1 0xA0 SHL SUB AND CALLER EQ PUSH2 0x769 JUMPI PUSH1 0x40 MLOAD PUSH3 0x461BCD PUSH1 0xE5 SHL DUP2 MSTORE PUSH1 0x20 PUSH1 0x4 DUP3 ADD MSTORE PUSH1 0x9 PUSH1 0x24 DUP3 ADD MSTORE PUSH9 0x2737BA1037BBB732B9 PUSH1 0xB9 SHL PUSH1 0x44 DUP3 ADD MSTORE PUSH1 0x64 ADD PUSH2 0x279 JUMP JUMPDEST PUSH1 0x1 PUSH1 0x1 PUSH1 0xA0 SHL SUB DUP2 AND PUSH2 0x7B1 JUMPI PUSH1 0x40 MLOAD PUSH3 0x461BCD PUSH1 0xE5 SHL DUP2 MSTORE PUSH1 0x20 PUSH1 0x4 DUP3 ADD MSTORE PUSH1 0xF PUSH1 0x24 DUP3 ADD MSTORE PUSH15 0x496E76616C69642061646472657373 PUSH1 0x88 SHL PUSH1 0x44 DUP3 ADD MSTORE PUSH1 0x64 ADD PUSH2 0x279 JUMP JUMPDEST PUSH1 0x4 DUP1 SLOAD PUSH1 0x1 PUSH1 0x1 PUSH1 0xA0 SHL SUB NOT AND PUSH1 0x1 PUSH1 0x1 PUSH1 0xA0 SHL SUB SWAP3 SWAP1 SWAP3 AND SWAP2 SWAP1 SWAP2 OR SWAP1 SSTORE JUMP JUMPDEST PUSH1 0x0 PUSH1 0x20 DUP3 DUP5 SUB SLT ISZERO PUSH2 0x7E5 JUMPI PUSH1 0x0 DUP1 REVERT JUMPDEST POP CALLDATALOAD SWAP2 SWAP1 POP JUMP JUMPDEST PUSH1 0x0 PUSH1 0x20 DUP3 DUP5 SUB SLT ISZERO PUSH2 0x7FE JUMPI PUSH1 0x0 DUP1 REVERT JUMPDEST DUP2 CALLDATALOAD PUSH1 0x1 PUSH1 0x1 PUSH1 0xA0 SHL SUB DUP2 AND DUP2 EQ PUSH2 0x815 JUMPI PUSH1 0x0 DUP1 REVERT JUMPDEST SWAP4 SWAP3 POP POP POP JUMP JUMPDEST PUSH1 0x0 DUP3 PUSH2 0x839 JUMPI PUSH4 0x4E487B71 PUSH1 0xE0 SHL PUSH1 0x0 MSTORE PUSH1 0x12 PUSH1 0x4 MSTORE PUSH1 0x24 PUSH1 0x0 REVERT JUMPDEST POP MOD SWAP1 JUMP JUMPDEST PUSH4 0x4E487B71 PUSH1 0xE0 SHL PUSH1 0x0 MSTORE PUSH1 0x11 PUSH1 0x4 MSTORE PUSH1 0x24 PUSH1 0x0 REVERT JUMPDEST DUP1 DUP3 ADD DUP1 DUP3 GT ISZERO PUSH2 0x867 JUMPI PUSH2 0x867 PUSH2 0x83E JUMP JUMPDEST SWAP3 SWAP2 POP POP JUMP JUMPDEST PUSH1 0x0 PUSH1 0x20 DUP3 DUP5 SUB SLT ISZERO PUSH2 0x87F JUMPI PUSH1 0x0 DUP1 REVERT JUMPDEST POP MLOAD SWAP2 SWAP1 POP JUMP JUMPDEST PUSH1 0x0 PUSH1 0x1 DUP3 ADD PUSH2 0x898 JUMPI PUSH2 0x898 PUSH2 0x83E JUMP JUMPDEST POP PUSH1 0x1 ADD SWAP1 JUMP JUMPDEST PUSH1 0x0 DUP2 PUSH2 0x8AE JUMPI PUSH2 0x8AE PUSH2 0x83E JUMP JUMPDEST POP PUSH1 0x0 NOT ADD SWAP1 JUMP INVALID LOG2 PUSH5 0x6970667358 0x22 SLT KECCAK256 SWAP15 0xD1 LOG1 POP 0x2B PUSH18 0xC79A2944B71CEEC67A3313BE87E218627215 PUSH3 0x1B036F 0xCF 0xEB CALLCODE 0x2E PUSH5 0x736F6C6343 STOP ADDMOD SGT STOP CALLER "
				},
				"gasEstimates": {
					"creation": {
						"codeDepositCost": "456800",
						"executionCost": "infinite",
						"totalCost": "infinite"
					},
					"external": {
						"boardSize()": "2317",
						"currentGeneration()": "2384",
						"excludedCount()": "2362",
						"generateRandom()": "infinite",
						"isExcluded(uint256)": "6765",
						"lastGeneratedAt()": "2385",
						"lastRandomNumber()": "2318",
						"owner()": "2404",
						"resetThreshold()": "2339",
						"setSource1(address)": "26756",
						"setSource2(address)": "26779",
						"setSource3(address)": "26777",
						"source1()": "2360",
						"source2()": "2382",
						"source3()": "2426",
						"token()": "2425"
					}
				},
				"methodIdentifiers": {
					"boardSize()": "c51d69f4",
					"currentGeneration()": "8ddb428a",
					"excludedCount()": "c0c8ebe1",
					"generateRandom()": "02e4af01",
					"isExcluded(uint256)": "0a272a0a",
					"lastGeneratedAt()": "15aaa450",
					"lastRandomNumber()": "21e1ba4e",
					"owner()": "8da5cb5b",
					"resetThreshold()": "d8cb09b1",
					"setSource1(address)": "4134acff",
					"setSource2(address)": "10c40e4e",
					"setSource3(address)": "e7f571b2",
					"source1()": "96a12049",
					"source2()": "9c2cf049",
					"source3()": "c19e789b",
					"token()": "fc0c546a"
				}
			},
			"storageLayout": {
				"storage": [
					{
						"astId": 83,
						"contract": "random_number_generator.sol:BoardRandom_V18",
						"label": "token",
						"offset": 0,
						"slot": "0",
						"type": "t_contract(IERC20)77"
					},
					{
						"astId": 85,
						"contract": "random_number_generator.sol:BoardRandom_V18",
						"label": "owner",
						"offset": 0,
						"slot": "1",
						"type": "t_address"
					},
					{
						"astId": 87,
						"contract": "random_number_generator.sol:BoardRandom_V18",
						"label": "source1",
						"offset": 0,
						"slot": "2",
						"type": "t_address"
					},
					{
						"astId": 89,
						"contract": "random_number_generator.sol:BoardRandom_V18",
						"label": "source2",
						"offset": 0,
						"slot": "3",
						"type": "t_address"
					},
					{
						"astId": 91,
						"contract": "random_number_generator.sol:BoardRandom_V18",
						"label": "source3",
						"offset": 0,
						"slot": "4",
						"type": "t_address"
					},
					{
						"astId": 93,
						"contract": "random_number_generator.sol:BoardRandom_V18",
						"label": "boardSize",
						"offset": 0,
						"slot": "5",
						"type": "t_uint256"
					},
					{
						"astId": 95,
						"contract": "random_number_generator.sol:BoardRandom_V18",
						"label": "resetThreshold",
						"offset": 0,
						"slot": "6",
						"type": "t_uint256"
					},
					{
						"astId": 99,
						"contract": "random_number_generator.sol:BoardRandom_V18",
						"label": "excludedGeneration",
						"offset": 0,
						"slot": "7",
						"type": "t_mapping(t_uint256,t_uint256)"
					},
					{
						"astId": 101,
						"contract": "random_number_generator.sol:BoardRandom_V18",
						"label": "excludedCount",
						"offset": 0,
						"slot": "8",
						"type": "t_uint256"
					},
					{
						"astId": 103,
						"contract": "random_number_generator.sol:BoardRandom_V18",
						"label": "currentGeneration",
						"offset": 0,
						"slot": "9",
						"type": "t_uint256"
					},
					{
						"astId": 105,
						"contract": "random_number_generator.sol:BoardRandom_V18",
						"label": "lastRandomNumber",
						"offset": 0,
						"slot": "10",
						"type": "t_uint256"
					},
					{
						"astId": 107,
						"contract": "random_number_generator.sol:BoardRandom_V18",
						"label": "lastGeneratedAt",
						"offset": 0,
						"slot": "11",
						"type": "t_uint256"
					}
				],
				"types": {
					"t_address": {
						"encoding": "inplace",
						"label": "address",
						"numberOfBytes": "20"
					},
					"t_contract(IERC20)77": {
						"encoding": "inplace",
						"label": "contract IERC20",
						"numberOfBytes": "20"
					},
					"t_mapping(t_uint256,t_uint256)": {
						"encoding": "mapping",
						"key": "t_uint256",
						"label": "mapping(uint256 => uint256)",
						"numberOfBytes": "32",
						"value": "t_uint256"
					},
					"t_uint256": {
						"encoding": "inplace",
						"label": "uint256",
						"numberOfBytes": "32"
					}
				}
			},
			"userdoc": {
				"kind": "user",
				"methods": {},
				"version": 1
			}
		}
	}
}