{
	"data": {
		"bytecode": {
			"linkReferences": {},
			"object": "608060405234801561001057600080fd5b50604051610a5d380380610a5d83398101604081905261002f9161011f565b600082116100845760405162461bcd60e51b815260206004820152601660248201527f426f6172642073697a65206d757374206265203e20300000000000000000000060448201526064015b60405180910390fd5b6000811180156100945750818111155b6100e05760405162461bcd60e51b815260206004820152601760248201527f496e76616c6964207265736574207468726573686f6c64000000000000000000604482015260640161007b565b60018054336001600160a01b0319918216178255600080549091166001600160a01b039590951694909417909355600591909155600655600955610162565b60008060006060848603121561013457600080fd5b83516001600160a01b038116811461014b57600080fd5b602085015160409095015190969495509392505050565b6108ec806101716000396000f3fe608060405234801561001057600080fd5b50600436106101005760003560e01c806396a1204911610097578063c51d69f411610066578063c51d69f4146101f3578063d8cb09b1146101fc578063e7f571b214610205578063fc0c546a1461021857600080fd5b806396a12049146101b15780639c2cf049146101c4578063c0c8ebe1146101d7578063c19e789b146101e057600080fd5b806321e1ba4e116100d357806321e1ba4e146101615780634134acff1461016a5780638da5cb5b1461017d5780638ddb428a146101a857600080fd5b806302e4af01146101055780630a272a0a1461010f57806310c40e4e1461013757806315aaa4501461014a575b600080fd5b61010d61022b565b005b61012261011d3660046107d3565b61054a565b60405190151581526020015b60405180910390f35b61010d6101453660046107ec565b6105c3565b610153600b5481565b60405190815260200161012e565b610153600a5481565b61010d6101783660046107ec565b610673565b600154610190906001600160a01b031681565b6040516001600160a01b03909116815260200161012e565b61015360095481565b600254610190906001600160a01b031681565b600354610190906001600160a01b031681565b61015360085481565b600454610190906001600160a01b031681565b61015360055481565b61015360065481565b61010d6102133660046107ec565b610723565b600054610190906001600160a01b031681565b6000600554116102825760405162461bcd60e51b815260206004820152601560248201527f426f617264206e6f7420696e697469616c697a6564000000000000000000000060448201526064015b60405180910390fd5b600254600354600454604080516001600160a01b039485163160208201529284163190830152919091163160608201526000906080016040516020818303038152906040528051906020012060001c90506000600554826102e3919061081c565b6102ee906001610854565b905060006102fd60028361081c565b600080546040516370a0823160e01b8152336004820152600193909314935090916001600160a01b03909116906370a0823190602401602060405180830381865afa158015610350573d6000803e3d6000fd5b505050506040513d601f19601f82011682018060405250810190610374919061086d565b6040516bffffffffffffffffffffffff193360601b166020820152603481018290529091506000906054016040516020818303038152906040528051906020012060001c90506000600554826103ca919061081c565b6103d5906001610854565b905060006103e460028361081c565b6001149050600060055483886103fa9190610854565b610404919061081c565b61040f906001610854565b60095460008281526007602052604090205491925090036104ad5781151586151503610472575b6009546000828152600760205260409020540361046d578061045781610886565b915050600554811115610468575060015b610436565b6104ad565b5b600954600082815260076020526040902054036104ad578060010361049b5750600554610473565b806104a58161089f565b915050610473565b60095460008281526007602052604081209190915560088054916104d083610886565b9190505550600654600854106104fb57600980549060006104f083610886565b909155505060006008555b600a81905542600b8190556040805183815260208101929092527f252851c72bba973a3eff4c55d976631b74c5e463b736ab3ba7ea37cbe40bbc19910160405180910390a15050505050505050565b60006001821015801561055f57506005548211155b6105ab5760405162461bcd60e51b815260206004820152600e60248201527f496e76616c6964206e756d6265720000000000000000000000000000000000006044820152606401610279565b50600954600091825260076020526040909120541490565b6001546001600160a01b031633146106095760405162461bcd60e51b81526020600482015260096024820152682737ba1037bbb732b960b91b6044820152606401610279565b6001600160a01b0381166106515760405162461bcd60e51b815260206004820152600f60248201526e496e76616c6964206164647265737360881b6044820152606401610279565b600380546001600160a01b0319166001600160a01b0392909216919091179055565b6001546001600160a01b031633146106b95760405162461bcd60e51b81526020600482015260096024820152682737ba1037bbb732b960b91b6044820152606401610279565b6001600160a01b0381166107015760405162461bcd60e51b815260206004820152600f60248201526e496e76616c6964206164647265737360881b6044820152606401610279565b600280546001600160a01b0319166001600160a01b0392909216919091179055565b6001546001600160a01b031633146107695760405162461bcd60e51b81526020600482015260096024820152682737ba1037bbb732b960b91b6044820152606401610279565b6001600160a01b0381166107b15760405162461bcd60e51b815260206004820152600f60248201526e496e76616c6964206164647265737360881b6044820152606401610279565b600480546001600160a01b0319166001600160a01b0392909216919091179055565b6000602082840312156107e557600080fd5b5035919050565b6000602082840312156107fe57600080fd5b81356001600160a01b038116811461081557600080fd5b9392505050565b60008261083957634e487b7160e01b600052601260045260246000fd5b500690565b634e487b7160e01b600052601160045260246000fd5b808201808211156108675761086761083e565b92915050565b60006020828403121561087f57600080fd5b5051919050565b6000600182016108985761089861083e565b5060010190565b6000816108ae576108ae61083e565b50600019019056fea26469706673582212209ed1a1502b71c79a2944b71ceec67a3313be87e218627215621b036fcfebf22e64736f6c63430008130033",
			"opcodes": "PUSH1 0x80 PUSH1 0x40 MSTORE CALLVALUE DUP1 ISZERO PUSH2 0x10 JUMPI PUSH1 0x0 DUP1 REVERT JUMPDEST POP PUSH1 0x40 MLOAD PUSH2 0xA5D CODESIZE SUB DUP1 PUSH2 0xA5D DUP4 CODECOPY DUP2 ADD PUSH1 0x40 DUP2 SWAP1 MSTORE PUSH2 0x2F SWAP2 PUSH2 0x11F JUMP JUMPDEST PUSH1 0x0 DUP3 GT PUSH2 0x84 JUMPI PUSH1 0x40 MLOAD PUSH3 0x461BCD PUSH1 0xE5 SHL DUP2 MSTORE PUSH1 0x20 PUSH1 0x4 DUP3 ADD MSTORE PUSH1 0x16 PUSH1 0x24 DUP3 ADD MSTORE PUSH32 0x426F6172642073697A65206D757374206265203E203000000000000000000000 PUSH1 0x44 DUP3 ADD MSTORE PUSH1 0x64 ADD JUMPDEST PUSH1 0x40 MLOAD DUP1 SWAP2 SUB SWAP1 REVERT JUMPDEST PUSH1 0x0 DUP2 GT DUP1 ISZERO PUSH2 0x94 JUMPI POP DUP2 DUP2 GT ISZERO JUMPDEST PUSH2 0xE0 JUMPI PUSH1 0x40 MLOAD PUSH3 0x461BCD PUSH1 0xE5 SHL DUP2 MSTORE PUSH1 0x20 PUSH1 0x4 DUP3 ADD MSTORE PUSH1 0x17 PUSH1 0x24 DUP3 ADD MSTORE PUSH32 0x496E76616C6964207265736574207468726573686F6C64000000000000000000 PUSH1 0x44 DUP3 ADD MSTORE PUSH1 0x64 ADD PUSH2 0x7B JUMP JUMPDEST PUSH1 0x1 DUP1 SLOAD CALLER PUSH1 0x1 PUSH1 0x1 PUSH1 0xA0 SHL SUB NOT SWAP2 DUP3 AND OR DUP3 SSTORE PUSH1 0x0 DUP1 SLOAD SWAP1 SWAP2 AND PUSH1 0x1 PUSH1 0x1 PUSH1 0xA0 SHL SUB SWAP6 SWAP1 SWAP6 AND SWAP5 SWAP1 SWAP5 OR SWAP1 SWAP4 SSTORE PUSH1 0x5 SWAP2 SWAP1 SWAP2 SSTORE PUSH1 0x6 SSTORE PUSH1 0x9 SSTORE PUSH2 0x162 JUMP JUMPDEST PUSH1 0x0 DUP1 PUSH1 0x0 PUSH1 0x60 DUP5 DUP7 SUB SLT ISZERO PUSH2 0x134 JUMPI PUSH1 0x0 DUP1 REVERT JUMPDEST DUP4 MLOAD PUSH1 0x1 PUSH1 0x1 PUSH1 0xA0 SHL SUB DUP2 AND DUP2 EQ PUSH2 0x14B JUMPI PUSH1 0x0 DUP1 REVERT JUMPDEST PUSH1 0x20 DUP6 ADD MLOAD PUSH1 0x40 SWAP1 SWAP6 ADD MLOAD SWAP1 SWAP7 SWAP5 SWAP6 POP SWAP4 SWAP3 POP POP POP JUMP JUMPDEST PUSH2 0x8EC DUP1 PUSH2 0x171 PUSH1 0x0 CODECOPY PUSH1 0x0 RETURN INVALID PUSH1 0x80 PUSH1 0x40 MSTORE CALLVALUE DUP1 ISZERO PUSH2 0x10 JUMPI PUSH1 0x0 DUP1 REVERT JUMPDEST POP PUSH1 0x4 CALLDATASIZE LT PUSH2 0x100 JUMPI PUSH1 0x0 CALLDATALOAD PUSH1 0xE0 SHR DUP1 PUSH4 0x96A12049 GT PUSH2 0x97 JUMPI DUP1 PUSH4 0xC51D69F4 GT PUSH2 0x66 JUMPI DUP1 PUSH4 0xC51D69F4 EQ PUSH2 0x1F3 JUMPI DUP1 PUSH4 0xD8CB09B1 EQ PUSH2 0x1FC JUMPI DUP1 PUSH4 0xE7F571B2 EQ PUSH2 0x205 JUMPI DUP1 PUSH4 0xFC0C546A EQ PUSH2 0x218 JUMPI PUSH1 0x0 DUP1 REVERT JUMPDEST DUP1 PUSH4 0x96A12049 EQ PUSH2 0x1B1 JUMPI DUP1 PUSH4 0x9C2CF049 EQ PUSH2 0x1C4 JUMPI DUP1 PUSH4 0xC0C8EBE1 EQ PUSH2 0x1D7 JUMPI DUP1 PUSH4 0xC19E789B EQ PUSH2 0x1E0 JUMPI PUSH1 0x0 DUP1 REVERT JUMPDEST DUP1 PUSH4 0x21E1BA4E GT PUSH2 0xD3 JUMPI DUP1 PUSH4 0x21E1BA4E EQ PUSH2 0x161 JUMPI DUP1 PUSH4 0x4134ACFF EQ PUSH2 0x16A JUMPI DUP1 PUSH4 0x8DA5CB5B EQ PUSH2 0x17D JUMPI DUP1 PUSH4 0x8DDB428A EQ PUSH2 0x1A8 JUMPI PUSH1 0x0 DUP1 REVERT JUMPDEST DUP1 PUSH4 0x2E4AF01 EQ PUSH2 0x105 JUMPI DUP1 PUSH4 0xA272A0A EQ PUSH2 0x10F JUMPI DUP1 PUSH4 0x10C40E4E EQ PUSH2 0x137 JUMPI DUP1 PUSH4 0x15AAA450 EQ PUSH2 0x14A JUMPI JUMPDEST PUSH1 0x0 DUP1 REVERT JUMPDEST PUSH2 0x10D PUSH2 0x22B JUMP JUMPDEST STOP JUMPDEST PUSH2 0x122 PUSH2 0x11D CALLDATASIZE PUSH1 0x4 PUSH2 0x7D3 JUMP JUMPDEST PUSH2 0x54A JUMP JUMPDEST PUSH1 0x40 MLOAD SWAP1 ISZERO ISZERO DUP2 MSTORE PUSH1 0x20 ADD JUMPDEST PUSH1 0x40 MLOAD DUP1 SWAP2 SUB SWAP1 RETURN JUMPDEST PUSH2 0x10D PUSH2 0x145 CALLDATASIZE PUSH1 0x4 PUSH2 0x7EC JUMP JUMPDEST PUSH2 0x5C3 JUMP JUMPDEST PUSH2 0x153 PUSH1 0xB SLOAD DUP2 JUMP JUMPDEST PUSH1 0x40 MLOAD SWAP1 DUP2 MSTORE PUSH1 0x20 ADD PUSH2 0x12E JUMP JUMPDEST PUSH2 0x153 PUSH1 0xA SLOAD DUP2 JUMP JUMPDEST PUSH2 0x10D PUSH2 0x178 CALLDATASIZE PUSH1 0x4 PUSH2 0x7EC JUMP JUMPDEST PUSH2 0x673 JUMP JUMPDEST PUSH1 0x1 SLOAD PUSH2 0x190 SWAP1 PUSH1 0x1 PUSH1 0x1 PUSH1 0xA0 SHL SUB AND DUP2 JUMP JUMPDEST PUSH1 0x40 MLOAD PUSH1 0x1 PUSH1 0x1 PUSH1 0xA0 SHL SUB SWAP1 SWAP2 AND DUP2 MSTORE PUSH1 0x20 ADD PUSH2 0x12E JUMP JUMPDEST PUSH2 0x153 PUSH1 0x9 SLOAD DUP2 JUMP JUMPDEST PUSH1 0x2 SLOAD PUSH2 0x190 SWAP1 PUSH1 0x1 PUSH1 0x1 PUSH1 0xA0 SHL SUB AND DUP2 JUMP JUMPDEST PUSH1 0x3 SLOAD PUSH2 0x190 SWAP1 PUSH1 0x1 PUSH1 0x1 PUSH1 0xA0 SHL SUB AND DUP2 JUMP JUMPDEST PUSH2 0x153 PUSH1 0x8 SLOAD DUP2 JUMP JUMPDEST PUSH1 0x4 SLOAD PUSH2 0x190 SWAP1 PUSH1 0x1 PUSH1 0x1 PUSH1 0xA0 SHL SUB AND DUP2 JUMP JUMPDEST PUSH2 0x153 PUSH1 0x5 SLOAD DUP2 JUMP JUMPDEST PUSH2 0x153 PUSH1 0x6 SLOAD DUP2 JUMP JUMPDEST PUSH2 0x10D PUSH2 0x213 CALLDATASIZE PUSH1 0x4 PUSH2 0x7EC JUMP JUMPDEST PUSH2 0x723 JUMP JUMPDEST PUSH1 0x0 SLOAD PUSH2 0x190 SWAP1 PUSH1 0x1 PUSH1 0x1 PUSH1 0xA0 SHL SUB AND DUP2 JUMP JUMPDEST PUSH1 0x0 PUSH1 0x5 SLOAD GT PUSH2 0x282 JUMPI PUSH1 0x40 MLOAD PUSH3 0x461BCD PUSH1 0xE5 SHL DUP2 MSTORE PUSH1 0x20 PUSH1 0x4 DUP3 ADD MSTORE PUSH1 0x15 PUSH1 0x24 DUP3 ADD MSTORE PUSH32 0x426F617264206E6F7420696E697469616C697A65640000000000000000000000 PUSH1 0x44 DUP3 ADD MSTORE PUSH1 0x64 ADD JUMPDEST PUSH1 0x40 MLOAD DUP1 SWAP2 SUB SWAP1 REVERT JUMPDEST PUSH1 0x2 SLOAD PUSH1 0x3 SLOAD PUSH1 0x4 SLOAD PUSH1 0x40 DUP1 MLOAD PUSH1 0x1 PUSH1 0x1 PUSH1 0xA0 SHL SUB SWAP5 DUP6 AND BALANCE PUSH1 0x20 DUP3 ADD MSTORE SWAP3 DUP5 AND BALANCE SWAP1 DUP4 ADD MSTORE SWAP2 SWAP1 SWAP2 AND BALANCE PUSH1 0x60 DUP3 ADD MSTORE PUSH1 0x0 SWAP1 PUSH1 0x80 ADD PUSH1 0x40 MLOAD PUSH1 0x20 DUP2 DUP4 SUB SUB DUP2 MSTORE SWAP1 PUSH1 0x40 MSTORE DUP1 MLOAD SWAP1 PUSH1 0x20 ADD KECCAK256 PUSH1 0x0 SHR SWAP1 POP PUSH1 0x0 PUSH1 0x5 SLOAD DUP3 PUSH2 0x2E3 SWAP2 SWAP1 PUSH2 0x81C JUMP JUMPDEST PUSH2 0x2EE SWAP1 PUSH1 0x1 PUSH2 0x854 JUMP JUMPDEST SWAP1 POP PUSH1 0x0 PUSH2 0x2FD PUSH1 0x2 DUP4 PUSH2 0x81C JUMP JUMPDEST PUSH1 0x0 DUP1 SLOAD PUSH1 0x40 MLOAD PUSH4 0x70A08231 PUSH1 0xE0 SHL DUP2 MSTORE CALLER PUSH1 0x4 DUP3 ADD MSTORE PUSH1 0x1 SWAP4 SWAP1 SWAP4 EQ SWAP4 POP SWAP1 SWAP2 PUSH1 0x1 PUSH1 0x1 PUSH1 0xA0 SHL SUB SWAP1 SWAP2 AND SWAP1 PUSH4 0x70A08231 SWAP1 PUSH1 0x24 ADD PUSH1 0x20 PUSH1 0x40 MLOAD DUP1 DUP4 SUB DUP2 DUP7 GAS STATICCALL ISZERO DUP1 ISZERO PUSH2 0x350 JUMPI RETURNDATASIZE PUSH1 0x0 DUP1 RETURNDATACOPY RETURNDATASIZE PUSH1 0x0 REVERT JUMPDEST POP POP POP POP PUSH1 0x40 MLOAD RETURNDATASIZE PUSH1 0x1F NOT PUSH1 0x1F DUP3 ADD AND DUP3 ADD DUP1 PUSH1 0x40 MSTORE POP DUP2 ADD SWAP1 PUSH2 0x374 SWAP2 SWAP1 PUSH2 0x86D JUMP JUMPDEST PUSH1 0x40 MLOAD PUSH12 0xFFFFFFFFFFFFFFFFFFFFFFFF NOT CALLER PUSH1 0x60 SHL AND PUSH1 0x20 DUP3 ADD MSTORE PUSH1 0x34 DUP2 ADD DUP3 SWAP1 MSTORE SWAP1 SWAP2 POP PUSH1 0x0 SWAP1 PUSH1 0x54 ADD PUSH1 0x40 MLOAD PUSH1 0x20 DUP2 DUP4 SUB SUB DUP2 MSTORE SWAP1 PUSH1 0x40 MSTORE DUP1 MLOAD SWAP1 PUSH1 0x20 ADD KECCAK256 PUSH1 0x0 SHR SWAP1 POP PUSH1 0x0 PUSH1 0x5 SLOAD DUP3 PUSH2 0x3CA SWAP2 SWAP1 PUSH2 0x81C JUMP JUMPDEST PUSH2 0x3D5 SWAP1 PUSH1 0x1 PUSH2 0x854 JUMP JUMPDEST SWAP1 POP PUSH1 0x0 PUSH2 0x3E4 PUSH1 0x2 DUP4 PUSH2 0x81C JUMP JUMPDEST PUSH1 0x1 EQ SWAP1 POP PUSH1 0x0 PUSH1 0x5 SLOAD DUP4 DUP9 PUSH2 0x3FA SWAP2 SWAP1 PUSH2 0x854 JUMP JUMPDEST PUSH2 0x404 SWAP2 SWAP1 PUSH2 0x81C JUMP JUMPDEST PUSH2 0x40F SWAP1 PUSH1 0x1 PUSH2 0x854 JUMP JUMPDEST PUSH1 0x9 SLOAD PUSH1 0x0 DUP3 DUP2 MSTORE PUSH1 0x7 PUSH1 0x20 MSTORE PUSH1 0x40 SWAP1 KECCAK256 SLOAD SWAP2 SWAP3 POP SWAP1 SUB PUSH2 0x4AD JUMPI DUP2 ISZERO ISZERO DUP7 ISZERO ISZERO SUB PUSH2 0x472 JUMPI JUMPDEST PUSH1 0x9 SLOAD PUSH1 0x0 DUP3 DUP2 MSTORE PUSH1 0x7 PUSH1 0x20 MSTORE PUSH1 0x40 SWAP1 KECCAK256 SLOAD SUB PUSH2 0x46D JUMPI DUP1 PUSH2 0x457 DUP2 PUSH2 0x886 JUMP JUMPDEST SWAP2 POP POP PUSH1 0x5 SLOAD DUP2 GT ISZERO PUSH2 0x468 JUMPI POP PUSH1 0x1 JUMPDEST PUSH2 0x436 JUMP JUMPDEST PUSH2 0x4AD JUMP JUMPDEST JUMPDEST PUSH1 0x9 SLOAD PUSH1 0x0 DUP3 DUP2 MSTORE PUSH1 0x7 PUSH1 0x20 MSTORE PUSH1 0x40 SWAP1 KECCAK256 SLOAD SUB PUSH2 0x4AD JUMPI DUP1 PUSH1 0x1 SUB PUSH2 0x49B JUMPI POP PUSH1 0x5 SLOAD PUSH2 0x473 JUMP JUMPDEST DUP1 PUSH2 0x4A5 DUP2 PUSH2 0x89F JUMP JUMPDEST SWAP2 POP POP PUSH2 0x473 JUMP JUMPDEST PUSH1 0x9 SLOAD PUSH1 0x0 DUP3 DUP2 MSTORE PUSH1 0x7 PUSH1 0x20 MSTORE PUSH1 0x40 DUP2 KECCAK256 SWAP2 SWAP1 SWAP2 SSTORE PUSH1 0x8 DUP1 SLOAD SWAP2 PUSH2 0x4D0 DUP4 PUSH2 0x886 JUMP JUMPDEST SWAP2 SWAP1 POP SSTORE POP PUSH1 0x6 SLOAD PUSH1 0x8 SLOAD LT PUSH2 0x4FB JUMPI PUSH1 0x9 DUP1 SLOAD SWAP1 PUSH1 0x0 PUSH2 0x4F0 DUP4 PUSH2 0x886 JUMP JUMPDEST SWAP1 SWAP2 SSTORE POP POP PUSH1 0x0 PUSH1 0x8 SSTORE JUMPDEST PUSH1 0xA DUP2 SWAP1 SSTORE TIMESTAMP PUSH1 0xB DUP2 SWAP1 SSTORE PUSH1 0x40 DUP1 MLOAD DUP4 DUP2 MSTORE PUSH1 0x20 DUP2 ADD SWAP3 SWAP1 SWAP3 MSTORE PUSH32 0x252851C72BBA973A3EFF4C55D976631B74C5E463B736AB3BA7EA37CBE40BBC19 SWAP2 ADD PUSH1 0x40 MLOAD DUP1 SWAP2 SUB SWAP1 LOG1 POP POP POP POP POP POP POP POP JUMP JUMPDEST PUSH1 0x0 PUSH1 0x1 DUP3 LT ISZERO DUP1 ISZERO PUSH2 0x55F JUMPI POP PUSH1 0x5 SLOAD DUP3 GT ISZERO JUMPDEST PUSH2 0x5AB JUMPI PUSH1 0x40 MLOAD PUSH3 0x461BCD PUSH1 0xE5 SHL DUP2 MSTORE PUSH1 0x20 PUSH1 0x4 DUP3 ADD MSTORE PUSH1 0xE PUSH1 0x24 DUP3 ADD MSTORE PUSH32 0x496E76616C6964206E756D626572000000000000000000000000000000000000 PUSH1 0x44 DUP3 ADD MSTORE PUSH1 0x64 ADD PUSH2 0x279 JUMP JUMPDEST POP PUSH1 0x9 SLOAD PUSH1 0x0 SWAP2 DUP3 MSTORE PUSH1 0x7 PUSH1 0x20 MSTORE PUSH1 0x40 SWAP1 SWAP2 KECCAK256 SLOAD EQ SWAP1 JUMP JUMPDEST PUSH1 0x1 SLOAD PUSH1 0x1 PUSH1 0x1 PUSH1 0xA0 SHL SUB AND CALLER EQ PUSH2 0x609 JUMPI PUSH1 0x40 MLOAD PUSH3 0x461BCD PUSH1 0xE5 SHL DUP2 MSTORE PUSH1 0x20 PUSH1 0x4 DUP3 ADD MSTORE PUSH1 0x9 PUSH1 0x24 DUP3 ADD MSTORE PUSH9 0x2737BA1037BBB732B9 PUSH1 0xB9 SHL PUSH1 0x44 DUP3 ADD MSTORE PUSH1 0x64 ADD PUSH2 0x279 JUMP JUMPDEST PUSH1 0x1 PUSH1 0x1 PUSH1 0xA0 SHL SUB DUP2 AND PUSH2 0x651 JUMPI PUSH1 0x40 MLOAD PUSH3 0x461BCD PUSH1 0xE5 SHL DUP2 MSTORE PUSH1 0x20 PUSH1 0x4 DUP3 ADD MSTORE PUSH1 0xF PUSH1 0x24 DUP3 ADD MSTORE PUSH15 0x496E76616C69642061646472657373 PUSH1 0x88 SHL PUSH1 0x44 DUP3 ADD MSTORE PUSH1 0x64 ADD PUSH2 0x279 JUMP JUMPDEST PUSH1 0x3 DUP1 SLOAD PUSH1 0x1 PUSH1 0x1 PUSH1 0xA0 SHL SUB NOT AND PUSH1 0x1 PUSH1 0x1 PUSH1 0xA0 SHL SUB SWAP3 SWAP1 SWAP3 AND SWAP2 SWAP1 SWAP2 OR SWAP1 SSTORE JUMP JUMPDEST PUSH1 0x1 SLOAD PUSH1 0x1 PUSH1 0x1 PUSH1 0xA0 SHL SUB AND CALLER EQ PUSH2 0x6B9 JUMPI PUSH1 0x40 MLOAD PUSH3 0x461BCD PUSH1 0xE5 SHL DUP2 MSTORE PUSH1 0x20 PUSH1 0x4 DUP3 ADD MSTORE PUSH1 0x9 PUSH1 0x24 DUP3 ADD MSTORE PUSH9 0x2737BA1037BBB732B9 PUSH1 0xB9 SHL PUSH1 0x44 DUP3 ADD MSTORE PUSH1 0x64 ADD PUSH2 0x279 JUMP JUMPDEST PUSH1 0x1 PUSH1 0x1 PUSH1 0xA0 SHL SUB DUP2 AND PUSH2 0x701 JUMPI PUSH1 0x40 MLOAD PUSH3 0x461BCD PUSH1 0xE5 SHL DUP2 MSTORE PUSH1 0x20 PUSH1 0x4 DUP3 ADD MSTORE PUSH1 0xF PUSH1 0x24 DUP3 ADD MSTORE PUSH15 0x496E76616C69642061646472657373 PUSH1 0x88 SHL PUSH1 0x44 DUP3 ADD MSTORE PUSH1 0x64 ADD PUSH2 0x279 JUMP JUMPDEST PUSH1 0x2 DUP1 SLOAD PUSH1 0x1 PUSH1 0x1 PUSH1 0xA0 SHL SUB NOT AND PUSH1 0x1 PUSH1 0x1 PUSH1 0xA0 SHL SUB SWAP3 SWAP1 SWAP3 AND SWAP2 SWAP1 SWAP2 OR SWAP1 SSTORE JUMP JUMPDEST PUSH1 0x1 SLOAD PUSH1 0x1 PUSH1 0x1 PUSH1 0xA0 SHL SUB AND CALLER EQ PUSH2 0x769 JUMPI PUSH1 0x40 MLOAD PUSH3 0x461BCD PUSH1 0xE5 SHL DUP2 MSTORE PUSH1 0x20 PUSH1 0x4 DUP3 ADD MSTORE PUSH1 0x9 PUSH1 0x24 DUP3 ADD MSTORE PUSH9 0x2737BA1037BBB732B9 PUSH1 0xB9 SHL PUSH1 0x44 DUP3 ADD MSTORE PUSH1 0x64 ADD PUSH2 0x279 JUMP JUMPDEST PUSH1 0x1 PUSH1 0x1 PUSH1 0xA0 SHL SUB DUP2 AND PUSH2 0x7B1 JUMPI PUSH1 0x40 MLOAD PUSH3 0x461BCD PUSH1 0xE5 SHL DUP2 MSTORE PUSH1 0x20 PUSH1 0x4 DUP3 ADD MSTORE PUSH1 0xF PUSH1 0x24 DUP3 ADD MSTORE PUSH15 0x496E76616C69642061646472657373 PUSH1 0x88 SHL PUSH1 0x44 DUP3 ADD MSTORE PUSH1 0x64 ADD PUSH2 0x279 JUMP JUMPDEST PUSH1 0x4 DUP1 SLOAD PUSH1 0x1 PUSH1 0x1 PUSH1 0xA0 SHL SUB NOT AND PUSH1 0x1 PUSH1 0x1 PUSH1 0xA0 SHL SUB SWAP3 SWAP1 SWAP3 AND SWAP2 SWAP1 SWAP2 OR SWAP1 SSTORE JUMP JUMPDEST PUSH1 0x0 PUSH1 0x20 DUP3 DUP5 SUB SLT ISZERO PUSH2 0x7E5 JUMPI PUSH1 0x0 DUP1 REVERT JUMPDEST POP CALLDATALOAD SWAP2 SWAP1 POP JUMP JUMPDEST PUSH1 0x0 PUSH1 0x20 DUP3 DUP5 SUB SLT ISZERO PUSH2 0x7FE JUMPI PUSH1 0x0 DUP1 REVERT JUMPDEST DUP2 CALLDATALOAD PUSH1 0x1 PUSH1 0x1 PUSH1 0xA0 SHL SUB DUP2 AND DUP2 EQ PUSH2 0x815 JUMPI PUSH1 0x0 DUP1 REVERT JUMPDEST SWAP4 SWAP3 POP POP POP JUMP JUMPDEST PUSH1 0x0 DUP3 PUSH2 0x839 JUMPI PUSH4 0x4E487B71 PUSH1 0xE0 SHL PUSH1 0x0 MSTORE PUSH1 0x12 PUSH1 0x4 MSTORE PUSH1 0x24 PUSH1 0x0 REVERT JUMPDEST POP MOD SWAP1 JUMP JUMPDEST PUSH4 0x4E487B71 PUSH1 0xE0 SHL PUSH1 0x0 MSTORE PUSH1 0x11 PUSH1 0x4 MSTORE PUSH1 0x24 PUSH1 0x0 REVERT JUMPDEST DUP1 DUP3 ADD DUP1 DUP3 GT ISZERO PUSH2 0x867 JUMPI PUSH2 0x867 PUSH2 0x83E JUMP JUMPDEST SWAP3 SWAP2 POP POP JUMP JUMPDEST PUSH1 0x0 PUSH1 0x20 DUP3 DUP5 SUB SLT ISZERO PUSH2 0x87F JUMPI PUSH1 0x0 DUP1 REVERT JUMPDEST POP MLOAD SWAP2 SWAP1 POP JUMP JUMPDEST PUSH1 0x0 PUSH1 0x1 DUP3 ADD PUSH2 0x898 JUMPI PUSH2 0x898 PUSH2 0x83E JUMP JUMPDEST POP PUSH1 0x1 ADD SWAP1 JUMP JUMPDEST PUSH1 0x0 DUP2 PUSH2 0x8AE JUMPI PUSH2 0x8AE PUSH2 0x83E JUMP JUMPDEST POP PUSH1 0x0 NOT ADD SWAP1 JUMP INVALID LOG2 PUSH5 0x6970667358 0x22 SLT KECCAK256 SWAP15 0xD1 LOG1 POP 0x2B PUSH18 0xC79A2944B71CEEC67A3313BE87E218627215 PUSH3 0x1B036F 0xCF 0xEB CALLCODE 0x2E PUSH5 0x736F6C6343 STOP ADDMOD SGT STOP CALLER "
		},
		"gasEstimates": {
			"creation": {
				"codeDepositCost": "456800",
				"executionCost": "infinite",
				"totalCost": "infinite"
			},
			"external": {
				"boardSize()": "2317",
				"currentGeneration()": "2384",
				"excludedCount()": "2362",
				"generateRandom()": "infinite",
				"isExcluded(uint256)": "6765",
				"lastGeneratedAt()": "2385",
				"lastRandomNumber()": "2318",
				"owner()": "2404",
				"resetThreshold()": "2339",
				"setSource1(address)": "26756",
				"setSource2(address)": "26779",
				"setSource3(address)": "26777",
				"source1()": "2360",
				"source2()": "2382",
				"source3()": "2426",
				"token()": "2425"
			}
		},
		"methodIdentifiers": {
			"boardSize()": "c51d69f4",
			"currentGeneration()": "8ddb428a",
			"excludedCount()": "c0c8ebe1",
			"generateRandom()": "02e4af01",
			"isExcluded(uint256)": "0a272a0a",
			"lastGeneratedAt()": "15aaa450",
			"lastRandomNumber()": "21e1ba4e",
			"owner()": "8da5cb5b",
			"resetThreshold()": "d8cb09b1",
			"setSource1(address)": "4134acff",
			"setSource2(address)": "10c40e4e",
			"setSource3(address)": "e7f571b2",
			"source1()": "96a12049",
			"source2()": "9c2cf049",
			"source3()": "c19e789b",
			"token()": "fc0c546a"
		}
	},
	"abi": [
		{
			"inputs": [
				{
					"internalType": "address",
					"name": "_token",
					"type": "address"
				},
				{
					"internalType": "uint256",
					"name": "_boardSize",
					"type": "uint256"
				},
				{
					"internalType": "uint256",
					"name": "_resetThreshold",
					"type": "uint256"
				}
			],
			"stateMutability": "nonpayable",
			"type": "constructor"
		},
		{
			"anonymous": false,
			"inputs": [
				{
					"indexed": false,
					"internalType": "uint256",
					"name": "number",
					"type": "uint256"
				},
				{
					"indexed": false,
					"internalType": "uint256",
					"name": "timestamp",
					"type": "uint256"
				}
			],
			"name": "RandomNumberGenerated",
			"type": "event"
		},
		{
			"inputs": [],
			"name": "boardSize",
			"outputs": [
				{
					"internalType": "uint256",
					"name": "",
					"type": "uint256"
				}
			],
			"stateMutability": "view",
			"type": "function"
		},
		{
			"inputs": [],
			"name": "currentGeneration",
			"outputs": [
				{
					"internalType": "uint256",
					"name": "",
					"type": "uint256"
				}
			],
			"stateMutability": "view",
			"type": "function"
		},
		{
			"inputs": [],
			"name": "excludedCount",
			"outputs": [
				{
					"internalType": "uint256",
					"name": "",
					"type": "uint256"
				}
			],
			"stateMutability": "view",
			"type": "function"
		},
		{
			"inputs": [],
			"name": "generateRandom",
			"outputs": [],
			"stateMutability": "nonpayable",
			"type": "function"
		},
		{
			"inputs": [
				{
					"internalType": "uint256",
					"name": "number",
					"type": "uint256"
				}
			],
			"name": "isExcluded",
			"outputs": [
				{
					"internalType": "bool",
					"name": "",
					"type": "bool"
				}
			],
			"stateMutability": "view",
			"type": "function"
		},
		{
			"inputs": [],
			"name": "lastGeneratedAt",
			"outputs": [
				{
					"internalType": "uint256",
					"name": "",
					"type": "uint256"
				}
			],
			"stateMutability": "view",
			"type": "function"
		},
		{
			"inputs": [],
			"name": "lastRandomNumber",
			"outputs": [
				{
					"internalType": "uint256",
					"name": "",
					"type": "uint256"
				}
			],
			"stateMutability": "view",
			"type": "function"
		},
		{
			"inputs": [],
			"name": "owner",
			"outputs": [
				{
					"internalType": "address",
					"name": "",
					"type": "address"
				}
			],
			"stateMutability": "view",
			"type": "function"
		},
		{
			"inputs": [],
			"name": "resetThreshold",
			"outputs": [
				{
					"internalType": "uint256",
					"name": "",
					"type": "uint256"
				}
			],
			"stateMutability": "view",
			"type": "function"
		},
		{
			"inputs": [
				{
					"internalType": "address",
					"name": "_source1",
					"type": "address"
				}
			],
			"name": "setSource1",
			"outputs": [],
			"stateMutability": "nonpayable",
			"type": "function"
		},
		{
			"inputs": [
				{
					"internalType": "address",
					"name": "_source2",
					"type": "address"
				}
			],
			"name": "setSource2",
			"outputs": [],
			"stateMutability": "nonpayable",
			"type": "function"
		},
		{
			"inputs": [
				{
					"internalType": "address",
					"name": "_source3",
					"type": "address"
				}
			],
			"name": "setSource3",
			"outputs": [],
			"stateMutability": "nonpayable",
			"type": "function"
		},
		{
			"inputs": [],
			"name": "source1",
			"outputs": [
				{
					"internalType": "address",
					"name": "",
					"type": "address"
				}
			],
			"stateMutability": "view",
			"type": "function"
		},
		{
			"inputs": [],
			"name": "source2",
			"outputs": [
				{
					"internalType": "address",
					"name": "",
					"type": "address"
				}
			],
			"stateMutability": "view",
			"type": "function"
		},
		{
			"inputs": [],
			"name": "source3",
			"outputs": [
				{
					"internalType": "address",
					"name": "",
					"type": "address"
				}
			],
			"stateMutability": "view",
			"type": "function"
		},
		{
			"inputs": [],
			"name": "token",
			"outputs": [
				{
					"internalType": "contract IERC20",
					"name": "",
					"type": "address"
				}
			],
			"stateMutability": "view",
			"type": "function"
		}
	]
}